:020000040000fa
:080000000002040000000000f2
:020000040000fa
:040008003c070000b1
:020000040000fa
:04000c00c802000026
:020000040000fa
:04001000da02000010
:020000040000fa
:04001400d002000016
:020000040000fa
:04001800e202000000
:020000040000fa
:04001c003c0700009d
:020000040000fa
:040020003c07000099
:020000040000fa
:040024003c07000095
:020000040000fa
:040028003c07000091
:020000040000fa
:04002c003c0700008d
:020000040000fa
:040030003c07000089
:020000040000fa
:0400340014070000ad
:020000040000fa
:040038003c07000081
:020000040000fa
:04003c003c0700007d
:020000040000fa
:040040003c07000079
:020000040000fa
:040044003c07000075
:020000040000fa
:040048003c07000071
:020000040000fa
:04004c003c0700006d
:020000040000fa
:040050003c07000069
:020000040000fa
:04005400cc030000d9
:020000040000fa
:040058007e03000023
:020000040000fa
:04005c00ea020000b4
:020000040000fa
:040060003c07000059
:020000040000fa
:040064003c07000055
:020000040000fa
:04006800c2040000ce
:020000040000fa
:04006c003c0700004d
:020000040000fa
:040070003c07000049
:020000040000fa
:040074003c07000045
:020000040000fa
:040078003c07000041
:020000040000fa
:04007c003c0700003d
:020000040000fa
:040080003c07000039
:020000040000fa
:040084003c07000035
:020000040000fa
:040088003c07000031
:020000040000fa
:04008c003c0700002d
:020000040000fa
:040090003c07000029
:020000040000fa
:040094003c07000025
:020000040000fa
:040098003c07000021
:020000040000fa
:04009c003c0700001d
:020000040000fa
:0400a0006e040000ea
:020000040000fa
:0400a4002004000034
:020000040000fa
:0400a8003c07000011
:020000040000fa
:0400ac003c0700000d
:020000040000fa
:0400b0003c07000009
:020000040000fa
:0400b4003c07000005
:020000040000fa
:0400b8003c07000001
:020000040000fa
:0400bc003c070000fd
:020000040000fa
:0400c0003c070000f9
:020000040000fa
:0400c4003c070000f5
:020000040000fa
:0400c8003c070000f1
:020000040000fa
:0400cc003c070000ed
:020000040000fa
:0400d0003c070000e9
:020000040000fa
:0400d4003c070000e5
:020000040000fa
:0400d8003c070000e1
:020000040000fa
:0400dc003c070000dd
:020000040000fa
:0400e0003c070000d9
:020000040000fa
:0400e4003c070000d5
:020000040000fa
:0400e8003c070000d1
:020000040000fa
:0400ec003c070000cd
:020000040000fa
:0400f0003c070000c9
:020000040000fa
:0400f4003c070000c5
:020000040000fa
:0400f8003c070000c1
:020000040000fa
:0400fc003c070000bd
:020000040000fa
:040100003c070000b8
:020000040000fa
:040104003c070000b4
:020000040000fa
:040108003c070000b0
:020000040000fa
:04010c003c070000ac
:020000040000fa
:040110003c070000a8
:020000040000fa
:040114003c070000a4
:020000040000fa
:040118003c070000a0
:020000040000fa
:04011c003c0700009c
:020000040000fa
:040120003c07000098
:020000040000fa
:040124003c07000094
:020000040000fa
:040128003c07000090
:020000040000fa
:04012c000a040000c1
:020000040000fa
:04013000ac0400001b
:020000040000fa
:040134003c07000084
:020000040000fa
:040138003c07000080
:020000040000fa
:04013c003c0700007c
:020000040000fa
:040140003c07000078
:020000040000fa
:040144003c07000074
:020000040000fa
:040148003c07000070
:020000040000fa
:04014c003c0700006c
:020000040000fa
:040150003c07000068
:020000040000fa
:040154003c07000064
:020000040000fa
:040158003c07000060
:020000040000fa
:04015c003c0700005c
:020000040000fa
:040160003c07000058
:020000040000fa
:040164003c07000054
:020000040000fa
:040168003c07000050
:020000040000fa
:04016c003c0700004c
:020000040000fa
:040170003c07000048
:020000040000fa
:040174003c07000044
:020000040000fa
:040178003c07000040
:020000040000fa
:04017c003c0700003c
:020000040000fa
:040180003c07000038
:020000040000fa
:040184003c07000034
:020000040000fa
:040188003c07000030
:020000040000fa
:04018c003c0700002c
:020000040000fa
:040190003c07000028
:020000040000fa
:040194003c07000024
:020000040000fa
:040198003c07000020
:020000040000fa
:04019c003c0700001c
:020000040000fa
:0401a0003c07000018
:020000040000fa
:0401a4003c07000014
:020000040000fa
:0401a8003c07000010
:020000040000fa
:0401ac003c0700000c
:020000040000fa
:040208003c070000af
:020000040000fa
:04020c003c070000ab
:020000040000fa
:040210003c070000a7
:020000040000fa
:040214003c070000a3
:020000040000fa
:040218003c0700009f
:020000040000fa
:04021c003c0700009b
:020000040000fa
:040220003c07000097
:020000040000fa
:040224003c07000093
:020000040000fa
:040228003c0700008f
:020000040000fa
:04022c003c0700008b
:020000040000fa
:040230003c07000087
:020000040000fa
:040234003c07000083
:020000040000fa
:040238003c0700007f
:020000040000fa
:04023c003c0700007b
:020000040000fa
:040240003c07000077
:020000040000fa
:040244003c07000073
:020000040000fa
:040248003c0700006f
:020000040000fa
:04024c003c0700006b
:020000040000fa
:040250003c07000067
:020000040000fa
:040254003c07000063
:020000040000fa
:040258003c0700005f
:020000040000fa
:04025c003c0700005b
:020000040000fa
:040260003c07000057
:020000040000fa
:040264003c07000053
:020000040000fa
:040268003c0700004f
:020000040000fa
:04026c003c0700004b
:020000040000fa
:040270003c07000047
:020000040000fa
:040274003c07000043
:020000040000fa
:040278003c0700003f
:020000040000fa
:04027c003c0700003b
:020000040000fa
:040280003c07000037
:020000040000fa
:040284003c07000033
:020000040000fa
:040288003c0700002f
:020000040000fa
:04028c003c0700002b
:020000040000fa
:040290003c07000027
:020000040000fa
:040294003c07000023
:020000040000fa
:040298003c0700001f
:020000040000fa
:04029c003c0700001b
:020000040000fa
:0402a0003c07000017
:020000040000fa
:0402a4003c07000013
:020000040000fa
:0402a8003c0700000f
:020000040000fa
:0402ac003c0700000b
:020000040000fa
:0402b0003c07000007
:020000040000fa
:0402b4003c07000003
:020000040000fa
:0402b8003c070000ff
:020000040000fa
:0402bc003c070000fb
:020000040000fa
:0402c0003c070000f7
:020000040000fa
:0402c4003c070000f3
:020000040000fa
:0402c8003c070000ef
:020000040000fa
:0402cc003c070000eb
:020000040000fa
:0402d0003c070000e7
:020000040000fa
:0402d4003c070000e3
:020000040000fa
:0402d8003c070000df
:020000040000fa
:0402dc003c070000db
:020000040000fa
:0402e0003c070000d7
:020000040000fa
:0402e4003c070000d3
:020000040000fa
:0402e8003c070000cf
:020000040000fa
:0402ec003c070000cb
:020000040000fa
:0402f0003c070000c7
:020000040000fa
:0402f4003c070000c3
:020000040000fa
:0402f8003c070000bf
:020000040000fa
:0402fc003c070000bb
:020000040000fa
:040300003c070000b6
:020000040000fa
:040304003c070000b2
:020000040000fa
:040308003c070000ae
:020000040000fa
:04030c003c070000aa
:020000040000fa
:040310003c070000a6
:020000040000fa
:040314003c070000a2
:020000040000fa
:040318003c0700009e
:020000040000fa
:04031c003c0700009a
:020000040000fa
:040320003c07000096
:020000040000fa
:040324003c07000092
:020000040000fa
:040328003c0700008e
:020000040000fa
:04032c003c0700008a
:020000040000fa
:040330003c07000086
:020000040000fa
:040334003c07000082
:020000040000fa
:040338003c0700007e
:020000040000fa
:04033c003c0700007a
:020000040000fa
:040340003c07000076
:020000040000fa
:040344003c07000072
:020000040000fa
:040348003c0700006e
:020000040000fa
:04034c003c0700006a
:020000040000fa
:040350003c07000066
:020000040000fa
:040354003c07000062
:020000040000fa
:040358003c0700005e
:020000040000fa
:04035c003c0700005a
:020000040000fa
:040360003c07000056
:020000040000fa
:040364003c07000052
:020000040000fa
:040368003c0700004e
:020000040000fa
:04036c003c0700004a
:020000040000fa
:040370003c07000046
:020000040000fa
:040374003c07000042
:020000040000fa
:040378003c0700003e
:020000040000fa
:04037c003c0700003a
:020000040000fa
:040380003c07000036
:020000040000fa
:040384003c07000032
:020000040000fa
:040388003c0700002e
:020000040000fa
:04038c003c0700002a
:020000040000fa
:040390003c07000026
:020000040000fa
:040394003c07000022
:020000040000fa
:040398003c0700001e
:020000040000fa
:04039c003c0700001a
:020000040000fa
:0403a0003c07000016
:020000040000fa
:0403a4003c07000012
:020000040000fa
:0403a8003c0700000e
:020000040000fa
:0403ac003c0700000a
:020000040000fa
:100400004f8920000eff20000e0188000000000030
:10041000000020000000e000020032000001200087
:100420002002880014000700950207000000e00089
:1004300003003a0060202100010020000200370084
:100440000000200001002000810f70000100320038
:1004500014000700000020000000e000020032004d
:100460000000020000000000721202000000000004
:100470000040da000000fe004440a9000000200017
:100480000000e0000300320000002000a00188000e
:100490004440a800000006008a1f78008b1f7800e7
:1004a0000000060091018800800478000000eb0045
:1004b0001a003700e284440032a0b4009905ba0063
:1004c000e284440032a0b4009906ba00e2844400f9
:1004d00032a0b4000006eb00476fde00fd07b2005b
:1004e000636ce10003003a00ebff07000000eb0043
:1004f0000a003700606ce10004003a00005deb0088
:100500008b05e900fdff3e00040037006168e10053
:10051000010032000086eb000b00070019c7ba008b
:100520001905ba000e04e00003003a000a00e000da
:10053000e0ff3a0000000600fe07b2009e018800be
:100540008a047800f5ff3700395dba008b05e900b1
:100550000c003200295dba008b05e900080032006a
:100560000c00e00003003a00e284440032a0b40032
:10057000f5ff370019ddba008b05e900faff3a00f4
:100580008904e800e184440032a0b40000000600c1
:100590003600f8008020a9000000eb0008080700e2
:1005a0003600f8000a0807008040a900100020006b
:1005b000030807003600f8008060a9002000200032
:1005c000ff0707003600f8008080a90030002000f7
:1005d000fb0707003600f800809fbe00829fbe0028
:1005e000849fbe00869fbe00889fbe003400f80036
:1005f00000002000a00188000800fa000f04780025
:1006000082c8bf000004a2000004e00030003200f5
:100610000f007800800478007ec8bf008080fb0057
:100620008100e900210798000080fb0000004000e5
:100630000000e8000000e8000000d1008000400059
:100640000f007800818747000000e8000000d1001b
:1006500000004000300798003e009000a906070007
:100660000000eb00100798000000eb00000f78007e
:1006700008003700be0090001e0078000000400017
:10068000610078009e0090000080400010079800f4
:100690001e0fe8007ec8bf000080fb009e0f5000c8
:1006a000f4ff3d007ec8bf000080fb000000e800b2
:1006b0009e00900000017800110009008280d8009f
:1006c0000044880010c0b30082e8b70089077800b2
:1006d00085a0a900880778000080fa003400f9009e
:1006e0004f04be004f03be004f02be004f01be00cc
:1006f0004f00be003600f90000400600809fbe009b
:100700000000fa009142800000202000008060007c
:100710000000e000020032009580a9001b003700b5
:100720008580a900140037008042800010407800c6
:100730000080fb0020118800804280000000e8005b
:100740008042880081428000c0852000808f500058
:1007500002003a0040852000804288005308a9002a
:100760008142800070428000808f500002003a0079
:100770005328a80005003700111180000020200038
:10078000008060000000e000e7ff32000080fa0017
:100790004f00be0000400600809fbe000000fa002f
:1007a00014003700504280003111800081407800f1
:1007b00001487800504280000000e8005042880064
:1007c0005142800040862000808f500002003a0095
:1007d000c0852000504288005228a9005142800064
:1007e00060428000808f500002003a005208a8004a
:1007f0000400370010118000610060000000e0007c
:10080000e8ff3a008560a9000080fa004f00be00b2
:1008100000400600801f78000000fa0010118000e0
:10082000620060000000e000010032002222a90006
:100830008c20a9000080fa004f00780000400600dc
:10084000809fbe000000fa0061438000002020006d
:10085000008060000000e0000200320097e0a90084
:100860001b00370087e0a9001400370050438000c8
:10087000104078000080fb00a011880050438000e9
:100880000000e8005043880051438000608720004a
:10089000808f500002003a00e0862000504388001c
:1008a0006d08a9005143800040438000808f5000b4
:1008b00002003a006d28a800050037009111800061
:1008c00000202000008060000000e000e7ff320010
:1008d0000080fa004f00be0000400600809fbe006e
:1008e0000000fa001400370020438000b11180009e
:1008f0008140780001487800204380000000e80033
:100900002043880021438000e0872000808f500032
:1009100002003a0060872000204388006c28a9006c
:100920002143800030438000808f500002003a0055
:100930006c08a8000400370090118000610060007e
:100940000000e000e8ff3a0087c0a9000080fa003c
:100950004f00be0000400600801f78000000fa0033
:1009600090118000620060000000e0000100320091
:100970003222a9008c40a9000080fa004f007800c4
:10098000004006003600f800809fbe00829fbe0037
:10099000849fbe00869fbe000000fa008600a9006a
:1009a0001110800000082000008060000000e000be
:1009b0000800320002e2a9000e28ef00a0408000eb
:1009c000200090008000eb00010878001428ef0060
:1009d0000e013700704080008000eb00b200200064
:1009e00003002000820f5000838f5800fd003e005e
:1009f000006001000b0037003a0037007600370036
:100a00009d003700f4003700c9003700da003700d6
:100a1000f1003700dc003700f20037003500370006
:100a200051003700608020002000900062006000cc
:100a30000000e000f4003a00608020001000900008
:100a4000a0408800608020001000900010407800d6
:100a500010e8b700608020001000900010009000a7
:100a6000904088006080200010009000e600400068
:100a700060802000110098006080200090009000ad
:100a800060802000808f500003003a0060802000ca
:100a9000018020001100980060802000200190005b
:100aa000e1ff2f008100610021009800608020009c
:100ab000900090006080200010007800808f50002f
:100ac00004003a0060802000a00090000110a00007
:100ad000210098000402a800200020007040880037
:100ae000ca0037000422a8002000200070408800bf
:100af000c600370021108000000420000080600044
:100b00000000e0000800320060802000604090009b
:100b10008040e80060802000614098004000200094
:100b200041040700b9003700104180008000d10067
:100b3000f00f20000080600000108800104180004d
:100b400061006000004078000004e0000300320013
:100b5000b000200070408800ac003700300020005a
:100b600070408800a9003700211080000004200098
:100b7000008060000000e00008003200608020007b
:100b8000604090008040e800608020006140980054
:100b900040002000240407009c0037000422a80025
:100ba000104180004800de00e6006000000f2000d9
:100bb0000100700010418800104180000000a0007a
:100bc0001041880010c0b30024e8b70020002000c6
:100bd000704088008d00370024c8bf00e14f5000ee
:100be0000a00320090408000100078001041880018
:100bf00090408000200090003041880090408000ac
:100c00002040900028e8b700010037002468ef007a
:100c100011418000f00f2000808f50000900360045
:100c2000104180004800de00e6006000000f200058
:100c30000100700000108800a000200070408800b3
:100c400072003700104180000010880010418000c1
:100c500061006000004078000004e0000300320002
:100c600050002000704088006800370030002000ed
:100c700070408800650037002110800000042000cb
:100c8000008060000000e000090032006080200069
:100c9000604090008040e800608020006140980043
:100ca00004c2a90050002000df03070057003700ee
:100cb00028c8bf008080fb008100e900cf08de006b
:100cc000814078000040e90028e8b7000104e00016
:100cd0001000320090408000660040009040880084
:100ce00010c8bf000040e90010e8b70010c8bf00fe
:100cf0000004e00003003a0020002000ca030700bf
:100d0000420037000422a800200020007040880024
:100d10003e00370030418000904078008180fb0029
:100d2000011088000000e8003041880037003700db
:100d30002110800000042000008060000000e0001e
:100d40000900320060802000604090008040e80090
:100d5000608020006140980040002000b20307003e
:100d600004c2a900290037000462a8008000200006
:100d70007040880025003700800020007040880007
:100d80000462a8002100370030418000011080007b
:100d900081407800014878000000e8003041880078
:100da00028c8bf000040e90028e8b70028c8bf00f5
:100db0000004e0000400320004a2a900600020004a
:100dc000704088000200370004a2a80085030700d5
:100dd0000482a8000d0037002000200092030700c5
:100de0000a00370060802000604090008040e800ea
:100df0006080200061409800600020008a030700a6
:100e00000000000001003700000000000080fa0030
:100e10004f03be004f02be004f01be004f00be0098
:100e20003600f900004006003600f800809fbe0042
:100e3000829fbe00849fbe00869fbe000000fa0015
:100e4000f804070093c8bf000040e80093e8b7002b
:100e500010c0b30092e8b7008460a9000080fa00d7
:100e60004f03be004f02be004f01be004f00be0048
:100e70003600f900004006000040da000000fe00e5
:040e80000000050069
:020000040000fa
:100e84000a00fa004007980010002000200798008c
:100e940030c0b300604798000040eb0070479800f2
:100ea400e4004700660047008101780072022000d8
:100eb40021c0b300680307000000eb00100798008e
:100ec4000000eb00000f78002e00370000e823003c
:100ed40001002000ab050700401f20009e007800a1
:100ee400808f500005003a004e009000110a200047
:100ef400010878000040eb007d0037001e0fe80079
:100f040001003700000000002e009000e10f5000a7
:100f1400eeff32002e009000e20f50001d00320060
:100f240000e8230001002000960507009e009000c1
:100f3400401f2000808f50000f003a002e009000c8
:100f4400e40f500004003a004e009000210a2000f3
:100f540001087800060037002e009000e50f5000cd
:100f640003003a004e009000310a20000108780086
:100f74000040eb005e0037001e0090000000e80017
:100f8400100798002e0090000000e000ddff3a00fa
:100f940001003700000000002e0090000000e00077
:100fa40005003a004e009000410a20000108780034
:100fb4000040eb004e00370000802400811e20001a
:100fc4007005070010c0b300604798000040eb00b4
:100fd40070479800e40047006600470081017800ec
:100fe4007202200021c0b3001b0307000000eb00c5
:100ff400100798000000eb00000f78002e00370067
:1010040000e82300010020005e050700401f2000c7
:101014009e007800808f500005003a004e0090003a
:10102400110a2000010878000040eb00300037006e
:101034001e0fe80001003700000000002e009000a1
:10104400e10f5000eeff32002e009000e20f50003e
:101054001d00320000e823000100200049050700bc
:101064009e009000401f2000808f50000f003a0027
:101074002e009000e40f500004003a004e0090004f
:10108400210a200001087800060037002e00900095
:10109400e50f500003003a004e009000310a200092
:1010a400010878000040eb00110037001e0090009a
:1010b4000000e800100798002e0090000000e000f7
:1010c400ddff3a0001003700000000002e00900010
:1010d4000000e00005003a004e009000410a2000a4
:1010e400010878000040eb000100370010c0b30095
:1010f4000080fa00000006000e00fa00404f98003d
:10110400514f980010002000300798006a004700f3
:10111400650007000004a2000004e00002003200a1
:101124000040eb005e0037002e4890000004e00011
:10113400050032004e4890000004e00002003a002e
:1011440010002000010037000000eb000040780090
:10115400204f980070c0b300404798000040eb0057
:101164005047980007003700ce4090003000200020
:101174000008dd00404798005e4090000040e80011
:1011840050479800ce4090004e48900080cf5000c9
:10119400f5ff3a005e4890000081fb005e4090003d
:1011a4000080fb006300b900000078000010dd003f
:1011b400504f98002e4890000004e00003003a00cd
:1011c4005e4890000004e00002003200100020009d
:1011d400010037000000eb0000407800204f980029
:1011e40010c0b300004f98002e489000104f980094
:1011f400e600470068004700810178007202200081
:1012040021c0b300940207000000eb00100798000f
:101214000000eb00000f78001b00370000e82300fb
:1012240001002000d7040700401f20009e00780022
:10123400808f500002003a000040eb001800370095
:101244001e0fe80001003700000000003e0090007f
:10125400e10f5000f1ff32003e009000e20f500019
:101264000d0032009e009000401f2000808f50002f
:1012740002003a000040eb00090037001e00900015
:101284000000e800100798003e0090000000e00015
:10129400edff3a00010037000000000010c0b30069
:1012a4000080fa00000006001600fa00200f9800e3
:1012b40010c0b30020579800f200470066004700b2
:1012c4007302200012c0b300ea0207006600470060
:1012d400660040007302200012c0b300ae08900004
:1012e400cc0207000000eb00000f78000000eb00c8
:1012f4001007980020003700e4004700660047000c
:10130400010178008000780020c0b3008402070047
:101314000c00370000e823000100200099040700b6
:101324009e009000401f2000808f500002003a0071
:101334000040eb00160037001e0090000000e8009b
:10134400100798002e009000e10f5000f1ff3200ca
:101354002e009000e20f50000b003200401f2000ce
:101364009e007800808f500002003a000040eb009d
:10137400070037001e0fe8002e0090000000e00078
:10138400ddff3a00010037000000000010c0b30088
:101394000080fa00000006000000fa00800020002f
:1013a400001188002222ef00f00c20004011880078
:1013b4009560a80021e2a8002342a80040852000ef
:1013c400804288004085200070428800c08520004b
:1013d40060428800c0852000504288005228a8003e
:1013e4005328a8005308a9005208a9000080fa0055
:1013f400000006000200fa000040eb00004f7800f5
:1014040060428000104f7800604280000000e800d5
:10141400604288006142800040862000808f500036
:1014240002003a00c08520006042880061428000ca
:1014340050428000808f500001003a005228a800da
:101444005208a9001e4078000080fa00000006003f
:101454000600fa00881f78001007980021079800fa
:101464000000eb00000f7800090037009042800074
:10147400620060000000e0000a003a001e009000d4
:101484001e044000dbff0700004c78001e0fe8003c
:101494002e0090009e007800808f5000f3ff3900ea
:1014a40001003700000000001e0078004f0478009f
:1014b4000080fa00000006000200fa00004f7800e5
:1014c4009580a900704280001e4878007042800018
:1014d4000000e8007042880071428000c08520004e
:1014e400808f500002003a0040852000704288003e
:1014f4005328a9008142800070428000808f5000f0
:1015040001003a005308a8009580a8000080fa0062
:10151400000006000600fa00100798002107980052
:101524000000eb00000f78000a00370091428000b1
:1015340000102000008060000000e0000a003a0073
:101544001e0090001e004000104078001e0fe800ae
:10155400d9ff07002e0090009e007800808f500075
:10156400f2ff390001003700000000001e0078007f
:101574000080fa00000006000200fa000000eb0000
:10158400000f78009142800000102000008060006d
:101594000000e000010032001e30a00091428000f3
:1015a40000202000008060000000e0000100320004
:1015b4001e40a00090428000610060000000e00036
:1015c400010032001e00a000904280006200600012
:1015d4000000e000020032001e20a00001003700dd
:1015e4001e10a0001e0078000080fa000000060013
:1015f4000200fa00000f7800604280009e00400064
:1016040040862000808f5000090036006042800030
:101614009e004000408620000000ea0080804000d8
:10162400c08520000080400010407800030037008f
:10163400604280001e004000104078000080fa00e4
:10164400000006000000fa00904280006100600083
:101654000000e0000f003a00614280005042800028
:10166400808f5000050036006042800080007800c2
:101674005042800000805000070037006042800024
:1016840080007800504280000080500068004000d4
:10169400010037000000eb000080fa0000000600a3
:1016a4000000fa00914280000010200000806000d9
:1016b4000000e0000f003a00814280007042800088
:1016c400808f500005003600804280008000780042
:1016d4007042800000805000070037008042800084
:1016e4008000780070428000008050006800400054
:1016f400010037000000eb000080fa000000060043
:101704000000fa00904280000000d10061406000b7
:101714000080fb0000f0a7000000ea000000ea00df
:101724004f00de00004078000080fa000000060050
:101734000000fa00904280004800de006140600032
:101744000080fb0000f0a7000000ea000000ea00af
:101754004f00de00004078000080fa000000060020
:101764000000fa00101180000080fa00000006005a
:101774000000fa0080002000801188003222ef006f
:10178400f00c2000c011880097c0a80031e2a80026
:101794003342a800e086200050438800e086200001
:1017a4004043880060872000304388006087200021
:1017b400204388006c28a8006d28a8006d08a900a3
:1017c4006c08a9000080fa00000006000200fa007c
:1017d4000040eb00004f780030438000104f780049
:1017e400304380000000e80030438800314380002b
:1017f400e0872000808f500002003a0060872000bc
:10180400304388003143800020438000808f5000a3
:1018140001003a006c28a8006c08a9001e4078005a
:101824000080fa00000006000600fa00881f780015
:1018340010079800210798000000eb00000f7800c3
:101844000900370060438000620060000000e0008f
:101854000a003a001e0090001e044000dbff07004f
:10186400004c78001e0fe8002e0090009e007800c7
:10187400808f5000f3ff39000100370000000000a2
:101884001e0078004f0478000080fa000000060073
:101894000200fa00004f780097e0a900404380005e
:1018a4001e487800404380000000e8004043880060
:1018b4004143800060872000808f500002003a007e
:1018c400e0862000404388006d28a9005143800031
:1018d40040438000808f500001003a006d08a8004a
:1018e40097e0a8000080fa00000006000600fa0055
:1018f40010079800210798000000eb00000f780003
:101904000a0037006143800000102000008060005e
:101914000000e0000a003a001e0090001e00400093
:10192400104078001e0fe800d9ff07002e00900039
:101934009e007800808f5000f2ff390001003700cc
:10194400000000001e0078000080fa00000006007d
:101954000200fa000000eb00000f780061438000f1
:1019640000102000008060000000e0000100320050
:101974001e30a00061438000002020000080600031
:101984000000e000010032001e40a000604380001f
:10199400610060000000e000010032001e00a000b1
:1019a40060438000620060000000e000020032003a
:1019b4001e20a000010037001e10a0001e007800a9
:1019c4000080fa00000006000200fa00000f780010
:1019d400304380009e004000e0872000808f50004c
:1019e40009003600304380009e004000e08720005c
:1019f4000000ea00808040006087200000804000f2
:101a04001040780003003700304380001e0040007f
:101a1400104078000080fa00000006000000fa0080
:101a240060438000610060000000e0000f003a00a5
:101a34003143800020438000808f50000500360031
:101a440030438000800078002043800000805000f4
:101a54000700370030438000800078002043800076
:101a64000080500068004000010037000000eb00d7
:101a74000080fa00000006000000fa0061438000c4
:101a840000102000008060000000e0000f003a0019
:101a94005143800040438000808f50000500360091
:101aa4005043800080007800404380000080500054
:101ab40007003700504380008000780040438000d6
:101ac4000080500068004000010037000000eb0077
:101ad4000080fa00000006000000fa006043800065
:101ae4000000d100614060000080fb0000f0a7000e
:101af4000000ea000000ea004f00de000040780029
:101b04000080fa00000006000000fa006043800034
:101b14004800de00614060000080fb0000f0a70088
:101b24000000ea000000ea004f00de0000407800f8
:101b34000080fa00000006000000fa009011800006
:101b44000080fa00000006000000fa006080200017
:101b54000180200011009800608020000180200096
:101b64000108780060802000a00090000110a0000f
:101b7400210098006080200020019000e1ff2f00e8
:101b84008100610021009800608020008040eb000b
:101b94006140980000082000401088008002200066
:101ba400101088008000200030108800f009200008
:101bb400501088008600a9009600a8000080fa0052
:101bc400000006000200fa0060802000e04090005f
:101bd400014f78001e4078000080fa0000000600e3
:101be4000000fa00904080006600400090408800a9
:101bf40010c8bf000040e90010e8b70010c8bf00db
:101c04000004e00003003a00400020007040880017
:101c14000200370010002000704088000080fa00a5
:101c2400000006000200fa00000f78000442a80039
:101c3400a0408000200090000000e000030032007b
:101c4400a0408000200090001e0878000e28ef00bd
:101c54000080fa00000006000800fa00000f780077
:101c640021479800220798003307980060802000dd
:101c740020009000610060000000e0000a003a00cb
:101c8400ae0190002e4190009e007800c08120009b
:101c9400780007003e019000c181200010c0b3000d
:101ca4001f000700030037003e0090008000eb0097
:101cb400010878000080fa00000006000800fa001d
:101cc400000f7800214798002207980033079800f6
:101cd4006080200020009000610060000000e000af
:101ce4000a003a00ae0190002e4190009e00780058
:101cf40060812000470007003e01900061812000c0
:101d040010c0b30006000700030037003e00900037
:101d14008000eb00010878000080fa000000060053
:101d24000600fa00004f7800110798002207980077
:101d34006080200020009000610060000000e0004e
:101d44002f003a002e0090001100200001087800b6
:101d540060802000100078009e0090001100980020
:101d640060802000100078001e4878006080200009
:101d740010007800ae0090002100980060802000e0
:101d840010007800e6004000608020000108780020
:101d9400608020009000780060802000808f5000d8
:101da40003003a00608020000180200001087800d0
:101db4006080200020019000d1ff2f00810061008d
:101dc4002100980060802000900090006080200036
:101dd40010007800808f500004003a0060802000da
:101de400a00090000100a000210098007040800035
:101df4000000e00005003a008600a8000300370058
:101e04002e0090008000eb00010878000080fa00aa
:101e1400000006000800fa00000f7800110798007f
:101e240042479800330798003e00900000004000ad
:101e3400800078001e007800010878001e007800f9
:101e440010007800800078000100a0001e007800d7
:101e5400010878001e007800ce40900021409800d0
:101e64001e0078009e009000210098000080fa0077
:101e7400000006000800fa00000f7800110798001f
:101e840042479800330798003e009000000040004d
:101e9400800078001e007800010878001e00780099
:101ea400ce409000214098001e0078009e009000d3
:101eb400210098000080fa00000006000000fa00eb
:101ec40060802000200090000000d100614060008c
:101ed4000080fb0000f0a7000000ea000000ea0018
:101ee4004f00de00004078000080fa000000060089
:101ef4000000fa0060802000200090006140600033
:101f04000080fb0000f0a7000000ea000000ea00e7
:101f14004f00de00004078000080fa000000060058
:101f24000a00fa00400798001000200020079800db
:101f34000040eb00604798000040eb0070479800b9
:101f4400e40047006600470081017800c2022000d7
:101f540021c0b30040ff07000000eb001007980009
:101f64000000eb00000f78002e00370000e823008b
:101f74000100200083010700803e20009e007800bd
:101f8400808f500005003a004e009000110b200095
:101f9400010878000040eb00300037001e0fe80015
:101fa40001003700000000002e009000e10f5000f7
:101fb400eeff32002e009000e20f50001d003200b0
:101fc40000e82300010020006e0107009e0090003d
:101fd40040062000808f50000f003a002e00900031
:101fe400e40f500004003a004e009000210b200042
:101ff40001087800060037002e009000e50f50001d
:1020040003003a004e009000310b200001087800d4
:102014000040eb00110037001e0090000000e800b3
:10202400100798002e0090000000e000ddff3a0049
:1020340001003700000000002e0090000000e000c6
:1020440005003a004e009000410b20000108780082
:102054000040eb000100370010c0b3000080fa001c
:10206400000006000000fa0040472000001a880023
:1020740040022c00101a880090402000201a88008a
:102084004823ef004e23ef005023ef005423ef00ca
:102094005623ef005823ef006023ef006223ef0084
:1020a400101a80004200de007f4060007ee8b70026
:1020b4000080fa00000006000000fa0041e3a800d6
:1020c4000080fa00000006000000fa0041e3a900c5
:1020d4000080fa00000006000000fa008268ef00a9
:1020e40085a0a90095a0a8000080fa0000000600c1
:1020f4000000fa0095a0a9000080fa000000060084
:102104000600fa002007980000302000100798000d
:102114000000eb00000f78000b0037001e00780071
:1021240000004000ae009000008040009e0090003f
:1021340091007800010878001e0090000080e800fb
:10214400100798001e0fe8007ec8bf000080fb0047
:102154009e0f5000f1ff3d001e0078000080fa0041
:10216400000006000000fa00004480000080fa002d
:10217400000006000000fa0082c8bf000080fa00d8
:10218400000006000200fa00000f78009e007800ac
:10219400411a88000080fa00000006000000fa00de
:1021a4000021ef0020a12700100888000003200070
:1021b400200888008460a9009460a8009268ef0059
:1021c4000080fa00000006000200fa00000f780008
:1021d4009e007800110888009268ef000080fa00e1
:1021e400000006000000fa00100880000080fa00d9
:1021f400000006000200fa00000f78009e0078003c
:10220400010888009268ef000080fa0000000600d0
:102214000000fa00000880000080fa0000000600b8
:102224000000fa000080fa00000006000000fa0036
:102234009268ef009460a80005e1a8000080fa000d
:10224400000006000000fa0005e1a9009460a9005e
:102254000080fa00000006000200fa002189200034
:1022640091407800014f78001e4078000004e0009f
:10227400010032009268ef001e4078000080fa00ee
:10228400000006000000fa0093c8bf000080fb00b5
:102294000080fa00000006000000fa009368ef00d6
:1022a4000080fa00000006000000fa002106800009
:1022b400f08f2f00008060000080a00020068800be
:1022c40091058000f0ff28000080600000e0a0007d
:1022d4009005880091058000f08f2f0080806000b9
:1022e4000050200001007000900588006105800006
:1022f400000720000100700060058800610580006f
:1023040080ff2f00008060006000b300600588003b
:10231400510580000007200001007000500588006e
:1023240021068000f0f82f00008060000040a0002b
:10233400200688005105800080ff2f000080600087
:102344005000b3005005880041058000f0ff2800cc
:1023540080806000000026000100700040058800b5
:10236400210580000000270001007000200588007e
:102374000080fa00000006000000fa006d0007006b
:10238400c9ff070007000700f9fc0700eefd07007e
:1023940001fc070033ff070080ff07000080fa00fc
:1023a400000006000000fa004427ef004827ef0071
:1023b4004e27ef001200200080072000a109200012
:1023c400337420008049780081497800824978007c
:1023d40012002000600420007105200023742000f6
:1023e4008049780081497800824978000000000023
:1023f400103a8000610060000000e000fcff3a0039
:082404000080fa000000060050
:020000040000fa
:10240c00900800000200000002000000ffff000026
:10241c002a08000020000000000000007e080000d8
:10242c0006000000000000004a0800001a0000002e
:10243c0000000000640800001a000000000000000a
:10244c00000800002a0000000000000092080000b4
:10245c0002000000000000008408000004000000de
:10246c0000000000880800000400000000000000cc
:10247c008c080000040000000000000000000000b8
:020000040000fa
:10248c000000fa0005e1a90031e2a90041e3a9002e
:10249c0010c0b3000080fa00000006000200fa0031
:1024ac0003ff0700cd42a80009ff07000000000051
:1024bc002eff07000004a2000004e000fcff3a001d
:1024cc0026ff0700000f780007ff0700fcfe07003f
:1024dc000080fa00000006000200fa00a4ff0700ca
:1024ec00e7ff07000e00780063fa07000004a20063
:1024fc000004e000030032001e0078000040780069
:10250c00ebfb07001e00780000407800e8fb07009a
:10251c001e00780000407800e5fb07000040220018
:10252c00410f200015000700f9ff37000000fa00ea
:10253c00c422ef001008280060168800f00b200061
:10254c000016880060362300401688005620ef00e5
:10255c005820ef006e20ef007020ef00c622ef0035
:10256c00ce22ef00d00120000027880000002300bd
:0c257c00102788000080fa000000060014
:020000040000fa
:10258800f03fb1000180b10006003500ee030900fc
:1025980000000000403fb1000180b100fbff3d009a
:1025a8001000b000203fb000020035000080090094
:0825b800000000000000060015
:020000040000fa
:1025c000000f78009e00780081448800ffff3700ec
:1025d0000000fa00a08220008007780020842000fc
:0c25e000000188000080fa0000000600e6
:020000040000fa
:0200000401f009
:04000000ffff0000fe
:020000040000fa
:0200000401f009
:04000800ffff0000f6
:020000040000fa
:0200000401f009
:04000c00f8ff0000f9
:020000040000fa
:0200000401f009
:040010007fff00006e
:020000040000fa
:0200000401f009
:040014005fff00008a
:020000040000fa
:0200000401f009
:04001800ffff0000e6
:020000040000fa
:0200000401f009
:04001c00fdff0000e4
:00000001FF
