:020000040000fa
:080000000002040000000000f2
:020000040000fa
:040008009a06000054
:020000040000fa
:04000c00c802000026
:020000040000fa
:04001000da02000010
:020000040000fa
:04001400d002000016
:020000040000fa
:04001800e202000000
:020000040000fa
:04001c009a06000040
:020000040000fa
:040020009a0600003c
:020000040000fa
:040024009a06000038
:020000040000fa
:040028009a06000034
:020000040000fa
:04002c009a06000030
:020000040000fa
:040030009a0600002c
:020000040000fa
:040034007206000050
:020000040000fa
:040038009a06000024
:020000040000fa
:04003c009a06000020
:020000040000fa
:040040009a0600001c
:020000040000fa
:040044009a06000018
:020000040000fa
:040048009a06000014
:020000040000fa
:04004c009a06000010
:020000040000fa
:040050009a0600000c
:020000040000fa
:04005400cc030000d9
:020000040000fa
:040058007e03000023
:020000040000fa
:04005c00ea020000b4
:020000040000fa
:040060009a060000fc
:020000040000fa
:040064009a060000f8
:020000040000fa
:040068002004000070
:020000040000fa
:04006c009a060000f0
:020000040000fa
:040070009a060000ec
:020000040000fa
:040074009a060000e8
:020000040000fa
:040078009a060000e4
:020000040000fa
:04007c009a060000e0
:020000040000fa
:040080009a060000dc
:020000040000fa
:040084009a060000d8
:020000040000fa
:040088009a060000d4
:020000040000fa
:04008c009a060000d0
:020000040000fa
:040090009a060000cc
:020000040000fa
:040094009a060000c8
:020000040000fa
:040098009a060000c4
:020000040000fa
:04009c009a060000c0
:020000040000fa
:0400a0009a060000bc
:020000040000fa
:0400a4009a060000b8
:020000040000fa
:0400a8009a060000b4
:020000040000fa
:0400ac009a060000b0
:020000040000fa
:0400b0009a060000ac
:020000040000fa
:0400b4009a060000a8
:020000040000fa
:0400b8009a060000a4
:020000040000fa
:0400bc009a060000a0
:020000040000fa
:0400c0009a0600009c
:020000040000fa
:0400c4009a06000098
:020000040000fa
:0400c8009a06000094
:020000040000fa
:0400cc009a06000090
:020000040000fa
:0400d0009a0600008c
:020000040000fa
:0400d4009a06000088
:020000040000fa
:0400d8009a06000084
:020000040000fa
:0400dc009a06000080
:020000040000fa
:0400e0009a0600007c
:020000040000fa
:0400e4009a06000078
:020000040000fa
:0400e8009a06000074
:020000040000fa
:0400ec009a06000070
:020000040000fa
:0400f0009a0600006c
:020000040000fa
:0400f4009a06000068
:020000040000fa
:0400f8009a06000064
:020000040000fa
:0400fc009a06000060
:020000040000fa
:040100009a0600005b
:020000040000fa
:040104009a06000057
:020000040000fa
:040108009a06000053
:020000040000fa
:04010c009a0600004f
:020000040000fa
:040110009a0600004b
:020000040000fa
:040114009a06000047
:020000040000fa
:040118009a06000043
:020000040000fa
:04011c009a0600003f
:020000040000fa
:040120009a0600003b
:020000040000fa
:040124009a06000037
:020000040000fa
:040128009a06000033
:020000040000fa
:04012c000a040000c1
:020000040000fa
:040130009a0600002b
:020000040000fa
:040134009a06000027
:020000040000fa
:040138009a06000023
:020000040000fa
:04013c009a0600001f
:020000040000fa
:040140009a0600001b
:020000040000fa
:040144009a06000017
:020000040000fa
:040148009a06000013
:020000040000fa
:04014c009a0600000f
:020000040000fa
:040150009a0600000b
:020000040000fa
:040154009a06000007
:020000040000fa
:040158009a06000003
:020000040000fa
:04015c009a060000ff
:020000040000fa
:040160009a060000fb
:020000040000fa
:040164009a060000f7
:020000040000fa
:040168009a060000f3
:020000040000fa
:04016c009a060000ef
:020000040000fa
:040170009a060000eb
:020000040000fa
:040174009a060000e7
:020000040000fa
:040178009a060000e3
:020000040000fa
:04017c009a060000df
:020000040000fa
:040180009a060000db
:020000040000fa
:040184009a060000d7
:020000040000fa
:040188009a060000d3
:020000040000fa
:04018c009a060000cf
:020000040000fa
:040190009a060000cb
:020000040000fa
:040194009a060000c7
:020000040000fa
:040198009a060000c3
:020000040000fa
:04019c009a060000bf
:020000040000fa
:0401a0009a060000bb
:020000040000fa
:0401a4009a060000b7
:020000040000fa
:0401a8009a060000b3
:020000040000fa
:0401ac009a060000af
:020000040000fa
:040208009a06000052
:020000040000fa
:04020c009a0600004e
:020000040000fa
:040210009a0600004a
:020000040000fa
:040214009a06000046
:020000040000fa
:040218009a06000042
:020000040000fa
:04021c009a0600003e
:020000040000fa
:040220009a0600003a
:020000040000fa
:040224009a06000036
:020000040000fa
:040228009a06000032
:020000040000fa
:04022c009a0600002e
:020000040000fa
:040230009a0600002a
:020000040000fa
:040234009a06000026
:020000040000fa
:040238009a06000022
:020000040000fa
:04023c009a0600001e
:020000040000fa
:040240009a0600001a
:020000040000fa
:040244009a06000016
:020000040000fa
:040248009a06000012
:020000040000fa
:04024c009a0600000e
:020000040000fa
:040250009a0600000a
:020000040000fa
:040254009a06000006
:020000040000fa
:040258009a06000002
:020000040000fa
:04025c009a060000fe
:020000040000fa
:040260009a060000fa
:020000040000fa
:040264009a060000f6
:020000040000fa
:040268009a060000f2
:020000040000fa
:04026c009a060000ee
:020000040000fa
:040270009a060000ea
:020000040000fa
:040274009a060000e6
:020000040000fa
:040278009a060000e2
:020000040000fa
:04027c009a060000de
:020000040000fa
:040280009a060000da
:020000040000fa
:040284009a060000d6
:020000040000fa
:040288009a060000d2
:020000040000fa
:04028c009a060000ce
:020000040000fa
:040290009a060000ca
:020000040000fa
:040294009a060000c6
:020000040000fa
:040298009a060000c2
:020000040000fa
:04029c009a060000be
:020000040000fa
:0402a0009a060000ba
:020000040000fa
:0402a4009a060000b6
:020000040000fa
:0402a8009a060000b2
:020000040000fa
:0402ac009a060000ae
:020000040000fa
:0402b0009a060000aa
:020000040000fa
:0402b4009a060000a6
:020000040000fa
:0402b8009a060000a2
:020000040000fa
:0402bc009a0600009e
:020000040000fa
:0402c0009a0600009a
:020000040000fa
:0402c4009a06000096
:020000040000fa
:0402c8009a06000092
:020000040000fa
:0402cc009a0600008e
:020000040000fa
:0402d0009a0600008a
:020000040000fa
:0402d4009a06000086
:020000040000fa
:0402d8009a06000082
:020000040000fa
:0402dc009a0600007e
:020000040000fa
:0402e0009a0600007a
:020000040000fa
:0402e4009a06000076
:020000040000fa
:0402e8009a06000072
:020000040000fa
:0402ec009a0600006e
:020000040000fa
:0402f0009a0600006a
:020000040000fa
:0402f4009a06000066
:020000040000fa
:0402f8009a06000062
:020000040000fa
:0402fc009a0600005e
:020000040000fa
:040300009a06000059
:020000040000fa
:040304009a06000055
:020000040000fa
:040308009a06000051
:020000040000fa
:04030c009a0600004d
:020000040000fa
:040310009a06000049
:020000040000fa
:040314009a06000045
:020000040000fa
:040318009a06000041
:020000040000fa
:04031c009a0600003d
:020000040000fa
:040320009a06000039
:020000040000fa
:040324009a06000035
:020000040000fa
:040328009a06000031
:020000040000fa
:04032c009a0600002d
:020000040000fa
:040330009a06000029
:020000040000fa
:040334009a06000025
:020000040000fa
:040338009a06000021
:020000040000fa
:04033c009a0600001d
:020000040000fa
:040340009a06000019
:020000040000fa
:040344009a06000015
:020000040000fa
:040348009a06000011
:020000040000fa
:04034c009a0600000d
:020000040000fa
:040350009a06000009
:020000040000fa
:040354009a06000005
:020000040000fa
:040358009a06000001
:020000040000fa
:04035c009a060000fd
:020000040000fa
:040360009a060000f9
:020000040000fa
:040364009a060000f5
:020000040000fa
:040368009a060000f1
:020000040000fa
:04036c009a060000ed
:020000040000fa
:040370009a060000e9
:020000040000fa
:040374009a060000e5
:020000040000fa
:040378009a060000e1
:020000040000fa
:04037c009a060000dd
:020000040000fa
:040380009a060000d9
:020000040000fa
:040384009a060000d5
:020000040000fa
:040388009a060000d1
:020000040000fa
:04038c009a060000cd
:020000040000fa
:040390009a060000c9
:020000040000fa
:040394009a060000c5
:020000040000fa
:040398009a060000c1
:020000040000fa
:04039c009a060000bd
:020000040000fa
:0403a0009a060000b9
:020000040000fa
:0403a4009a060000b5
:020000040000fa
:0403a8009a060000b1
:020000040000fa
:0403ac009a060000ad
:020000040000fa
:10040000ef8620000eff20000e0188000000000093
:10041000000020000000e000020032000001200087
:100420002002880014000700440207000000e000da
:1004300003003a0040c920000100200002003700fc
:100440000000200001002000810f70000100320038
:1004500014000700000020000000e000020032004d
:100460000000020000000000bc0c020000000000c0
:100470000040da000000fe004440a9000000200017
:100480000000e0000300320000002000a00188000e
:100490004440a800000006008a1f78008b1f7800e7
:1004a0000000060091018800800478000000eb0045
:1004b0001a003700e284440032a0b4009905ba0063
:1004c000e284440032a0b4009906ba00e2844400f9
:1004d00032a0b4000006eb00476fde00fd07b2005b
:1004e000636ce10003003a00ebff07000000eb0043
:1004f0000a003700606ce10004003a00005deb0088
:100500008b05e900fdff3e00040037006168e10053
:10051000010032000086eb000b00070019c7ba008b
:100520001905ba000e04e00003003a000a00e000da
:10053000e0ff3a0000000600fe07b2009e018800be
:100540008a047800f5ff3700395dba008b05e900b1
:100550000c003200295dba008b05e900080032006a
:100560000c00e00003003a00e284440032a0b40032
:10057000f5ff370019ddba008b05e900faff3a00f4
:100580008904e800e184440032a0b40000000600c1
:100590003600f8008020a9000000eb0009050700e4
:1005a0003600f8000b0507008040a900100020006d
:1005b000040507003600f8008060a9002000200034
:1005c000000507003600f8008080a90030002000f8
:1005d000fc0407003600f800809fbe00829fbe002a
:1005e000849fbe00869fbe00889fbe003400f80036
:1005f00000002000a00188000800fa000f04780025
:1006000068c8bf000004a2000004e000300032000f
:100610000f0078008004780064c8bf008080fb0071
:100620008100e900210798000080fb0000004000e5
:100630000000e8000000e8000000d1008000400059
:100640000f007800818747000000e8000000d1001b
:1006500000004000300798003e009000cb030700e8
:100660000000eb00100798000000eb00000f78007e
:1006700008003700be0090001e0078000000400017
:10068000610078009e0090000080400010079800f4
:100690001e0fe80064c8bf000080fb009e0f5000e2
:1006a000f4ff3d0064c8bf000080fb000000e800cc
:1006b0009e00900000017800110009008280d8009f
:1006c0003043880010c0b30068e8b700890778009d
:1006d00085a0a900880778000080fa003400f9009e
:1006e0004f04be004f03be004f02be004f01be00cc
:1006f0004f00be003600f90000400600809fbe009b
:100700000000fa009142800000202000008060007c
:100710000000e000020032009580a9001b003700b5
:100720008580a900140037008042800010407800c6
:100730000080fb0020118800804280000000e8005b
:100740008042880081428000c0852000808f500058
:1007500002003a0040852000804288005308a9002a
:100760008142800070428000808f500002003a0079
:100770005328a80005003700111180000020200038
:10078000008060000000e000e7ff32000080fa0017
:100790004f00be0000400600809fbe000000fa002f
:1007a00014003700504280003111800081407800f1
:1007b00001487800504280000000e8005042880064
:1007c0005142800040862000808f500002003a0095
:1007d000c0852000504288005228a9005142800064
:1007e00060428000808f500002003a005208a8004a
:1007f0000400370010118000610060000000e0007c
:10080000e8ff3a008560a9000080fa004f00be00b2
:1008100000400600801f78000000fa0010118000e0
:10082000620060000000e000010032002222a90006
:100830008c20a9000080fa004f00780000400600dc
:100840003600f800809fbe00829fbe00849fbe00dd
:10085000869fbe000000fa008600a90011108000eb
:1008600000082000008060000000e0000800320066
:1008700002e2a9000e28ef00a040800020009000b6
:100880008000eb00010878001428ef000e0137000b
:10089000704080008000eb00b200200003002000c8
:1008a000820f5000838f5800fd003e000060010061
:1008b0000b0037003a003700760037009d00370004
:1008c000f4003700c9003700da003700f1003700c4
:1008d000dc003700f20037003500370051003700e8
:1008e0006080200020009000620060000000e000b6
:1008f000f4003a006080200010009000a0408800c2
:1009000060802000100090001040780010e8b700d0
:10091000608020001000900010009000904088003f
:100920006080200010009000e60040006080200001
:1009300011009800608020009000900060802000ee
:10094000808f500003003a0060802000018020006a
:10095000110098006080200020019000e1ff2f002e
:1009600081006100210098006080200090009000cc
:100970006080200010007800808f500004003a0052
:1009800060802000a00090000110a00021009800cd
:100990000402a8002000200070408800ca00370030
:1009a0000422a8002000200070408800c600370004
:1009b0002110800000042000008060000000e000a2
:1009c0000800320060802000604090008040e80015
:1009d0006080200061409800400020000402070071
:1009e000b9003700104180008000d100f00f2000d6
:1009f00000806000001088001041800061006000ed
:100a0000004078000004e00003003200b000200045
:100a100070408800ac003700300020007040880033
:100a2000a900370021108000000420000080600031
:100a30000000e0000800320060802000604090006c
:100a40008040e80060802000614098004000200065
:100a5000e70107009c0037000422a8001041800035
:100a60004800de00e6006000000f2000010070007a
:100a700010418800104180000000a0001041880053
:100a800010c0b30024e8b7002000200070408800a8
:100a90008d00370024c8bf00e14f50000a0032002b
:100aa0009040800010007800104188009040800045
:100ab000200090003041880090408000204090004d
:100ac00028e8b700010037002468ef0011418000da
:100ad000f00f2000808f5000090036001041800088
:100ae0004800de00e6006000000f200001007000fa
:100af00000108800a00020007040880072003700bd
:100b000010418000001088001041800061006000ea
:100b1000004078000004e000030032005000200094
:100b20007040880068003700300020007040880066
:100b30006500370021108000000420000080600064
:100b40000000e0000900320060802000604090005a
:100b50008040e800608020006140980004c2a90045
:100b600050002000a20107005700370028c8bf002e
:100b70008080fb008100e900cf08de008140780022
:100b80000040e90028e8b7000104e000100032004e
:100b900090408000660040009040880010c8bf0070
:100ba0000040e90010e8b70010c8bf000004e000f2
:100bb00003003a00200020008d01070042003700aa
:100bc0000422a80020002000704088003e0037006a
:100bd00030418000904078008180fb000110880047
:100be0000000e80030418800370037002110800005
:100bf00000042000008060000000e00009003200d6
:100c000060802000604090008040e800608020000c
:100c100061409800400020007501070004c2a9004f
:100c2000290037000462a80080002000704088007e
:100c30002500370080002000704088000462a80072
:100c40002100370030418000011080008140780091
:100c5000014878000000e8003041880028c8bf0043
:100c60000040e90028e8b70028c8bf000004e00001
:100c70000400320004a2a900600020007040880037
:100c80000200370004a2a800480107000482a8005f
:100c90000d00370020002000550107000a00370032
:100ca00060802000604090008040e800608020006c
:100cb00061409800600020004d0107000000000026
:100cc00001003700000000000080fa004f03be0062
:100cd0004f02be004f01be004f00be003600f900bb
:100ce000004006003600f800809fbe00829fbe00d4
:100cf000849fbe00869fbe000000fa006b020700c2
:100d00006dc8bf000040e8006de8b70010c0b30038
:100d10006ce8b7008460a9000080fa004f03be00b1
:100d20004f02be004f01be004f00be003600f9006a
:100d3000004006000040da000000fe000000050050
:020000040000fa
:100d40000000fa0080002000001188002222ef003d
:100d5000f00c2000401188009560a80021e2a80056
:100d60002342a80040852000804288004085200062
:100d700070428800c085200060428800c085200045
:100d8000504288005228a8005328a8005308a90000
:100d90005208a9000080fa00000006000200fa00d4
:100da0000040eb00004f780060428000104f780058
:100db000604280000000e8006042880061428000dc
:100dc00040862000808f500002003a00c08520003d
:100dd000604288006142800050428000808f500055
:100de00001003a005228a8005208a9001e407800cd
:100df0000080fa00000006000600fa00881f780054
:100e000010079800210798000000eb00000f780001
:100e10000900370090428000620060000000e0009e
:100e20000a003a001e0090001e044000dbff07008d
:100e3000004c78001e0fe8002e0090009e00780005
:100e4000808f5000f3ff39000100370000000000e0
:100e50001e0078004f0478000080fa0000000600b1
:100e60000200fa00004f78009580a90070428000cf
:100e70001e487800704280000000e8007042880040
:100e800071428000c0852000808f500002003a002f
:100e900040852000704288005328a90081428000cc
:100ea00070428000808f500001003a005308a80073
:100eb0009580a8000080fa00000006000600fa00f5
:100ec00010079800210798000000eb00000f780041
:100ed0000a0037009142800000102000008060006e
:100ee0000000e0000a003a001e0090001e004000d2
:100ef000104078001e0fe800d9ff07002e00900078
:100f00009e007800808f5000f2ff3900010037000a
:100f1000000000001e0078000080fa0000000600bb
:100f20000200fa000000eb00000f78009142800000
:100f300000102000008060000000e000010032008e
:100f40001e30a00091428000002020000080600040
:100f50000000e000010032001e40a000904280002e
:100f6000610060000000e000010032001e00a000ef
:100f700090428000620060000000e0000200320049
:100f80001e20a000010037001e10a0001e007800e7
:100f90000080fa00000006000200fa00000f78004e
:100fa000604280009e00400040862000808f5000fc
:100fb00009003600604280009e004000408620000c
:100fc0000000ea0080804000c085200000804000d2
:100fd0001040780003003700604280001e0040008f
:100fe000104078000080fa00000006000000fa00bf
:100ff00090428000610060000000e0000f003a00b5
:101000006142800050428000808f50000500360011
:1010100060428000800078005042800000805000d4
:101020000700370060428000800078005042800056
:101030000080500068004000010037000000eb0015
:101040000080fa00000006000000fa0091428000d3
:1010500000102000008060000000e0000f003a0057
:101060008142800070428000808f50000500360071
:101070008042800080007800704280000080500034
:1010800007003700804280008000780070428000b6
:101090000080500068004000010037000000eb00b5
:1010a0000080fa00000006000000fa009042800074
:1010b0000000d100614060000080fb0000f0a7004c
:1010c0000000ea000000ea004f00de000040780067
:1010d0000080fa00000006000000fa009042800044
:1010e0004800de00614060000080fb0000f0a700c7
:1010f0000000ea000000ea004f00de000040780037
:101100000080fa00000006000000fa0010118000c4
:101110000080fa00000006000000fa006080200055
:1011200001802000110098006080200001802000d4
:101130000108780060802000a00090000110a0004d
:10114000210098006080200020019000e1ff2f0026
:101150008100610021009800608020008040eb0049
:1011600061409800000820004010880080022000a4
:10117000101088000622ef00f009200050108800af
:101180008600a9009600a8000080fa000000060072
:101190000200fa0060802000e0409000014f7800db
:1011a0001e4078000080fa00000006000000fa00ef
:1011b00090408000660040009040880010c8bf004a
:1011c0000040e90010e8b70010c8bf000004e000cc
:1011d00003003a0040002000704088000200370001
:1011e00010002000704088000080fa000000060017
:1011f0000200fa00000f78000442a800a04080001e
:10120000200090000000e00003003200a0408000b9
:10121000200090001e0878000e28ef000080fa00e1
:10122000000006000800fa00000f7800214798002f
:10123000220798003307980060802000200090006b
:10124000610060000000e0000a003a00ae0190007a
:101250002e4190009e007800c08120007800070099
:101260003e019000c181200010c0b3001f000700a4
:10127000030037003e0090008000eb00010878007a
:101280000080fa00000006000800fa00000f780055
:1012900021479800220798003307980060802000bb
:1012a00020009000610060000000e0000a003a00a9
:1012b000ae0190002e4190009e00780060812000d9
:1012c000470007003e0190006181200010c0b3007c
:1012d00006000700030037003e0090008000eb008e
:1012e000010878000080fa00000006000600fa00fd
:1012f000004f7800110798002207980060802000b6
:1013000020009000610060000000e0002f003a0023
:101310002e0090001100200001087800608020005d
:10132000100078009e00900011009800608020005e
:10133000100078001e4878006080200010007800bf
:10134000ae0090002100980060802000100078001e
:10135000e6004000608020000108780060802000e6
:101360009000780060802000808f500003003a00d9
:10137000608020000180200001087800608020004b
:1013800020019000d1ff2f00810061002100980012
:1013900060802000900090006080200010007800a5
:1013a000808f500004003a0060802000a000900070
:1013b0000100a00021009800704080000000e000c3
:1013c00005003a008600a800030037002e009000b8
:1013d0008000eb00010878000080fa0000000600a1
:1013e0000800fa00000f78001107980042479800a3
:1013f000330798003e009000000040008000780015
:101400001e007800010878001e00780010007800a7
:10141000800078000100a0001e007800010878001c
:101420001e007800ce409000214098001e007800f9
:101430009e009000210098000080fa000000060045
:101440000800fa00000f7800110798004247980042
:10145000330798003e0090000000400080007800b4
:101460001e007800010878001e007800ce40900031
:10147000214098001e0078009e00900021009800f6
:101480000080fa00000006000000fa0060802000e2
:10149000200090000000d100614060000080fb004f
:1014a00000f0a7000000ea000000ea004f00de00a4
:1014b000004078000080fa00000006000000fa00fa
:1014c0006080200020009000614060000080fb00f0
:1014d00000f0a7000000ea000000ea004f00de0074
:1014e000004078000080fa00000006000000fa00ca
:1014f00040472000001a880040022c00101a880083
:1015000090402000201a88004823ef004e23ef006f
:101510005023ef005423ef005623ef005823ef0031
:101520006023ef006223ef00101a80004200de000b
:101530007f40600064e8b70095a0a9000080fa0031
:10154000000006000000fa0041e3a8000080fa0055
:10155000000006000000fa0041e3a9000080fa0044
:10156000000006000000fa006868ef0085a0a900ee
:1015700095a0a8000080fa00000006000000fa0014
:1015800095a0a9000080fa00000006000600fa00fd
:101590002007980000302000100798000000eb00a2
:1015a000000f78000b0037001e007800000040009c
:1015b000ae009000008040009e00900091007800f6
:1015c000010878001e0090000080e80010079800d5
:1015d0001e0fe80064c8bf000080fb009e0f500093
:1015e000f1ff3d001e0078000080fa0000000600b8
:1015f0000000fa00304380000080fa00000006007e
:101600000000fa0068c8bf000080fa000000060071
:101610000200fa00000f78009e007800411a88004e
:101620000080fa00000006000000fa000021ef0030
:1016300020a1270010088800000328002008880047
:101640008460a9009460a8006c68ef000080fa0034
:10165000000006000200fa00000f78009e007800eb
:10166000110888006c68ef000080fa000000060096
:101670000000fa00100880000080fa000000060058
:101680000200fa00000f78009e0078000108880030
:101690006c68ef000080fa00000006000000fa000d
:1016a000000880000080fa00000006000000fa0038
:1016b0000080fa00000006000000fa006c68ef00ed
:1016c0009460a80005e1a8000080fa000000060070
:1016d0000000fa0005e1a9009460a9000080fa006a
:1016e000000006000200fa00c18620009140780048
:1016f000014f78001e4078000004e0000100320035
:101700006c68ef001e4078000080fa0000000600c0
:101710000000fa006dc8bf000080fb000080fa00e6
:10172000000006000000fa006d68ef000080fa007b
:10173000000006000000fa008000200080118800f0
:101740003222ef0070062000c011880031e2a900ab
:101750003342a8000080fa00000006000000fa00f2
:101760000000000090118000610060000000e000b7
:10177000fcff320090118000620060000000e00079
:10178000010032003222a900b01180000040780030
:101790000080fa00000006000200fa00004f780006
:1017a00000000000911180000020200000806000f7
:1017b0000000e000fbff3a001e80fb00a011880043
:1017c0000080fa00000006000000fa00901180007e
:1017d0000080fa00000006000000fa003e0007004a
:1017e0000800070020000700d2ff07004afe07009c
:1017f00053fd07003dff07008bff07000080fa0044
:10180000000006000000fa004427ef004827ef0020
:101810004e27ef001200200080072000a1092000c1
:10182000337420008049780081497800824978002b
:1018300012002000600420007105200023742000a5
:1018400080497800814978008249780000000000d2
:10185000103a8000610060000000e000fcff3a00e8
:101860000080fa00000006000000fa002106800057
:10187000f0f82f00008060000040a00020068800e3
:101880005105800080ff2f00008060000000a00054
:101890005005880041058000f0ff280000806000ae
:1018a00000c0a0004005880051058000f0f82f001e
:1018b000008060000050a0005005880021058000d5
:1018c000f0ff28000080600000c0a0002005880014
:1018d0000080fa00000006000000fa00c422ef00b9
:1018e0001008280060168800f00b20000016880001
:1018f00060362300401688005620ef005820ef0085
:101900006e20ef007020ef00c622ef00ce22ef0025
:10191000d001200000278800000023001027880045
:081920000080fa00000006003f
:020000040000fa
:101928006a0800000200000002000000ffff00003b
:101938002a080000200000000000000064080000e1
:1019480006000000000000004a0800001a0000001d
:1019580000000000000800002a000000000000004d
:101968006c080000020000000000000000000000f9
:020000040000fa
:101978000000fa0096ff070058ff0700feff370037
:101988000200fa00edfe0700cd42a800f3fe0700b2
:101998000000000018ff07000004a2000004e00097
:1019a800fcff3a0010ff0700000f7800f1fe070067
:1019b800e6fe07000080fa0000000600000f78002d
:1019c8009e00780051438800ffff37000000fa00ae
:1019d800a082200080077800208420000001880071
:0819e8000080fa000000060077
:020000040000fa
:0200000401f009
:04000000ffff0000fe
:020000040000fa
:0200000401f009
:04000800ffff0000f6
:020000040000fa
:0200000401f009
:04000c00f8ff0000f9
:020000040000fa
:0200000401f009
:040010007fff00006e
:020000040000fa
:0200000401f009
:040014005fff00008a
:020000040000fa
:0200000401f009
:04001800ffff0000e6
:020000040000fa
:0200000401f009
:04001c00fdff0000e4
:00000001FF
