:020000040000fa
:080000000002040000000000f2
:020000040000fa
:040008004e0700009f
:020000040000fa
:04000c00c802000026
:020000040000fa
:04001000da02000010
:020000040000fa
:04001400d002000016
:020000040000fa
:04001800e202000000
:020000040000fa
:04001c004e0700008b
:020000040000fa
:040020004e07000087
:020000040000fa
:040024004e07000083
:020000040000fa
:040028004e0700007f
:020000040000fa
:04002c004e0700007b
:020000040000fa
:040030004e07000077
:020000040000fa
:0400340016070000ab
:020000040000fa
:040038004e0700006f
:020000040000fa
:04003c004e0700006b
:020000040000fa
:040040004e07000067
:020000040000fa
:040044004e07000063
:020000040000fa
:040048004e0700005f
:020000040000fa
:04004c004e0700005b
:020000040000fa
:040050004e07000057
:020000040000fa
:04005400ce030000d7
:020000040000fa
:040058008003000021
:020000040000fa
:04005c00ea020000b4
:020000040000fa
:040060004e07000047
:020000040000fa
:040064004e07000043
:020000040000fa
:04006800c4040000cc
:020000040000fa
:04006c004e0700003b
:020000040000fa
:040070004e07000037
:020000040000fa
:040074004e07000033
:020000040000fa
:040078004e0700002f
:020000040000fa
:04007c004e0700002b
:020000040000fa
:040080004e07000027
:020000040000fa
:040084004e07000023
:020000040000fa
:040088004e0700001f
:020000040000fa
:04008c004e0700001b
:020000040000fa
:040090004e07000017
:020000040000fa
:040094004e07000013
:020000040000fa
:040098004e0700000f
:020000040000fa
:04009c004e0700000b
:020000040000fa
:0400a00070040000e8
:020000040000fa
:0400a4002204000032
:020000040000fa
:0400a8004e070000ff
:020000040000fa
:0400ac004e070000fb
:020000040000fa
:0400b0004e070000f7
:020000040000fa
:0400b4004e070000f3
:020000040000fa
:0400b8004e070000ef
:020000040000fa
:0400bc004e070000eb
:020000040000fa
:0400c0004e070000e7
:020000040000fa
:0400c4004e070000e3
:020000040000fa
:0400c8004e070000df
:020000040000fa
:0400cc004e070000db
:020000040000fa
:0400d0004e070000d7
:020000040000fa
:0400d4004e070000d3
:020000040000fa
:0400d8004e070000cf
:020000040000fa
:0400dc004e070000cb
:020000040000fa
:0400e0004e070000c7
:020000040000fa
:0400e4004e070000c3
:020000040000fa
:0400e8004e070000bf
:020000040000fa
:0400ec004e070000bb
:020000040000fa
:0400f0004e070000b7
:020000040000fa
:0400f4004e070000b3
:020000040000fa
:0400f8004e070000af
:020000040000fa
:0400fc004e070000ab
:020000040000fa
:040100004e070000a6
:020000040000fa
:040104004e070000a2
:020000040000fa
:040108004e0700009e
:020000040000fa
:04010c004e0700009a
:020000040000fa
:040110004e07000096
:020000040000fa
:040114004e07000092
:020000040000fa
:040118004e0700008e
:020000040000fa
:04011c004e0700008a
:020000040000fa
:040120004e07000086
:020000040000fa
:040124004e07000082
:020000040000fa
:040128004e0700007e
:020000040000fa
:04012c000c040000bf
:020000040000fa
:04013000ae04000019
:020000040000fa
:040134004e07000072
:020000040000fa
:040138004e0700006e
:020000040000fa
:04013c004e0700006a
:020000040000fa
:040140004e07000066
:020000040000fa
:040144004e07000062
:020000040000fa
:040148004e0700005e
:020000040000fa
:04014c004e0700005a
:020000040000fa
:040150004e07000056
:020000040000fa
:040154004e07000052
:020000040000fa
:040158004e0700004e
:020000040000fa
:04015c004e0700004a
:020000040000fa
:040160004e07000046
:020000040000fa
:040164004e07000042
:020000040000fa
:040168004e0700003e
:020000040000fa
:04016c004e0700003a
:020000040000fa
:040170004e07000036
:020000040000fa
:040174004e07000032
:020000040000fa
:040178004e0700002e
:020000040000fa
:04017c004e0700002a
:020000040000fa
:040180004e07000026
:020000040000fa
:040184004e07000022
:020000040000fa
:040188004e0700001e
:020000040000fa
:04018c004e0700001a
:020000040000fa
:040190004e07000016
:020000040000fa
:040194004e07000012
:020000040000fa
:040198004e0700000e
:020000040000fa
:04019c004e0700000a
:020000040000fa
:0401a0004e07000006
:020000040000fa
:0401a4004e07000002
:020000040000fa
:0401a8004e070000fe
:020000040000fa
:0401ac004e070000fa
:020000040000fa
:040208004e0700009d
:020000040000fa
:04020c004e07000099
:020000040000fa
:040210004e07000095
:020000040000fa
:040214004e07000091
:020000040000fa
:040218004e0700008d
:020000040000fa
:04021c004e07000089
:020000040000fa
:040220004e07000085
:020000040000fa
:040224004e07000081
:020000040000fa
:040228004e0700007d
:020000040000fa
:04022c004e07000079
:020000040000fa
:040230004e07000075
:020000040000fa
:040234004e07000071
:020000040000fa
:040238004e0700006d
:020000040000fa
:04023c004e07000069
:020000040000fa
:040240004e07000065
:020000040000fa
:040244004e07000061
:020000040000fa
:040248004e0700005d
:020000040000fa
:04024c004e07000059
:020000040000fa
:040250004e07000055
:020000040000fa
:040254004e07000051
:020000040000fa
:040258004e0700004d
:020000040000fa
:04025c004e07000049
:020000040000fa
:040260004e07000045
:020000040000fa
:040264004e07000041
:020000040000fa
:040268004e0700003d
:020000040000fa
:04026c004e07000039
:020000040000fa
:040270004e07000035
:020000040000fa
:040274004e07000031
:020000040000fa
:040278004e0700002d
:020000040000fa
:04027c004e07000029
:020000040000fa
:040280004e07000025
:020000040000fa
:040284004e07000021
:020000040000fa
:040288004e0700001d
:020000040000fa
:04028c004e07000019
:020000040000fa
:040290004e07000015
:020000040000fa
:040294004e07000011
:020000040000fa
:040298004e0700000d
:020000040000fa
:04029c004e07000009
:020000040000fa
:0402a0004e07000005
:020000040000fa
:0402a4004e07000001
:020000040000fa
:0402a8004e070000fd
:020000040000fa
:0402ac004e070000f9
:020000040000fa
:0402b0004e070000f5
:020000040000fa
:0402b4004e070000f1
:020000040000fa
:0402b8004e070000ed
:020000040000fa
:0402bc004e070000e9
:020000040000fa
:0402c0004e070000e5
:020000040000fa
:0402c4004e070000e1
:020000040000fa
:0402c8004e070000dd
:020000040000fa
:0402cc004e070000d9
:020000040000fa
:0402d0004e070000d5
:020000040000fa
:0402d4004e070000d1
:020000040000fa
:0402d8004e070000cd
:020000040000fa
:0402dc004e070000c9
:020000040000fa
:0402e0004e070000c5
:020000040000fa
:0402e4004e070000c1
:020000040000fa
:0402e8004e070000bd
:020000040000fa
:0402ec004e070000b9
:020000040000fa
:0402f0004e070000b5
:020000040000fa
:0402f4004e070000b1
:020000040000fa
:0402f8004e070000ad
:020000040000fa
:0402fc004e070000a9
:020000040000fa
:040300004e070000a4
:020000040000fa
:040304004e070000a0
:020000040000fa
:040308004e0700009c
:020000040000fa
:04030c004e07000098
:020000040000fa
:040310004e07000094
:020000040000fa
:040314004e07000090
:020000040000fa
:040318004e0700008c
:020000040000fa
:04031c004e07000088
:020000040000fa
:040320004e07000084
:020000040000fa
:040324004e07000080
:020000040000fa
:040328004e0700007c
:020000040000fa
:04032c004e07000078
:020000040000fa
:040330004e07000074
:020000040000fa
:040334004e07000070
:020000040000fa
:040338004e0700006c
:020000040000fa
:04033c004e07000068
:020000040000fa
:040340004e07000064
:020000040000fa
:040344004e07000060
:020000040000fa
:040348004e0700005c
:020000040000fa
:04034c004e07000058
:020000040000fa
:040350004e07000054
:020000040000fa
:040354004e07000050
:020000040000fa
:040358004e0700004c
:020000040000fa
:04035c004e07000048
:020000040000fa
:040360004e07000044
:020000040000fa
:040364004e07000040
:020000040000fa
:040368004e0700003c
:020000040000fa
:04036c004e07000038
:020000040000fa
:040370004e07000034
:020000040000fa
:040374004e07000030
:020000040000fa
:040378004e0700002c
:020000040000fa
:04037c004e07000028
:020000040000fa
:040380004e07000024
:020000040000fa
:040384004e07000020
:020000040000fa
:040388004e0700001c
:020000040000fa
:04038c004e07000018
:020000040000fa
:040390004e07000014
:020000040000fa
:040394004e07000010
:020000040000fa
:040398004e0700000c
:020000040000fa
:04039c004e07000008
:020000040000fa
:0403a0004e07000004
:020000040000fa
:0403a4004e07000000
:020000040000fa
:0403a8004e070000fc
:020000040000fa
:0403ac004e070000f8
:020000040000fa
:100400004f8a20000eff20000e018800000000002f
:10041000000020000000e000020032000001200087
:1004200020028800140007009e0207000000e00080
:1004300003003a00c0bc2100010020000200370088
:100440000000200001002000810f70000100320038
:1004500014000700000020000000e000020032004d
:100460000000020000000000880c020000000000f4
:100470000040da000000fe004440a9008002200095
:100480000000e0000300320000002000a00188000e
:100490004440a800000006008a1f78008b1f7800e7
:1004a0000000060091018800800478000000eb0045
:1004b0001a003700e284440032a0b4009905ba0063
:1004c000e284440032a0b4009906ba00e2844400f9
:1004d00032a0b4000006eb00476fde00fd07b2005b
:1004e000636ce10003003a00ebff07000000eb0043
:1004f0000a003700606ce10004003a00005deb0088
:100500008b05e900fdff3e00040037006168e10053
:10051000010032000086eb000b00070019c7ba008b
:100520001905ba000e04e00003003a000a00e000da
:10053000e0ff3a0000000600fe07b2009e018800be
:100540008a047800f5ff3700395dba008b05e900b1
:100550000c003200295dba008b05e900080032006a
:100560000c00e00003003a00e284440032a0b40032
:10057000f5ff370019ddba008b05e900faff3a00f4
:100580008904e800e184440032a0b40000000600c1
:100590003600f8008020a9000000eb00ef0c0700f7
:1005a0003600f800f10c07008040a9001000200080
:1005b000ea0c07003600f8008060a9002000200047
:1005c000e60c07003600f8008080a900300020000b
:1005d000e20c07003600f800809fbe00829fbe003c
:1005e000849fbe00869fbe00889fbe003400f80036
:1005f00000002000a00188000800fa000f04780025
:1006000092c8bf000004a2000004e00031003200e4
:100610000f007800800478008ec8bf008080fb0047
:100620008100e900210798000080fb0000004000e5
:100630000000e8000000e8000000d1008000400059
:100640000f007800818747000000e8000000d1001b
:1006500000004000300798003e009000ae0b0700fd
:100660000000eb00100798000000eb00000f78007e
:1006700008003700be0090001e0078000000400017
:10068000610078009e0090000080400010079800f4
:100690001e0fe8008ec8bf000080fb009e0f5000b8
:1006a000f4ff3d008ec8bf000080fb000000e800a2
:1006b0009e00900000017800110009008280d8009f
:1006c0008044880010c0b30092e8b7008e0b07008a
:1006d0008907780085a0a900880778000080fa00c3
:1006e0003400f9004f04be004f03be004f02be00ad
:1006f0004f01be004f00be003600f900004006006a
:10070000809fbe000000fa0091428000002020007f
:10071000008060000000e000020032009580a90027
:100720001b0037008580a90014003700804280003c
:10073000104078000080fb0020118800804280007b
:100740000000e8008042880081428000c0852000cf
:10075000808f500002003a004085200080428800cf
:100760005308a9008142800070428000808f5000b1
:1007700002003a005328a80005003700111180003c
:1007800000202000008060000000e000e7ff320051
:100790000080fa004f00be0000400600809fbe00af
:1007a0000000fa0014003700504280003111800030
:1007b0008140780001487800504280000000e80045
:1007c000504288005142800040862000808f5000b7
:1007d00002003a00c0852000504288005228a9003b
:1007e0005142800060428000808f500002003a0039
:1007f0005208a8000400370010118000610060005a
:100800000000e000e8ff3a008560a9000080fa00df
:100810004f00be0000400600801f78000000fa0074
:1008200010118000620060000000e0000100320052
:100830002222a9008c20a9000080fa004f00780035
:1008400000400600809fbe000000fa006143800067
:1008500000202000008060000000e0000200320064
:1008600097e0a9001b00370087e0a90014003700bb
:1008700050438000104078000080fb00a0118800e9
:10088000504380000000e80050438800514380003e
:1008900060872000808f500002003a00e086200030
:1008a000504388006d08a9005143800040438000f8
:1008b000808f500002003a006d28a8000500370024
:1008c0009111800000202000008060000000e00006
:1008d000e7ff32000080fa004f00be000040060033
:1008e000809fbe000000fa00140037002043800003
:1008f000b1118000814078000148780020438000d9
:100900000000e8002043880021438000e0872000a9
:10091000808f500002003a0060872000204388004a
:100920006c28a9002143800030438000808f500054
:1009300002003a006c08a800040037009011800003
:10094000610060000000e000e8ff3a0087c0a900f5
:100950000080fa004f00be0000400600801f7800b3
:100960000000fa0090118000620060000000e000ca
:10097000010032003222a9008c40a9000080fa0058
:100980004f007800004006003600f800809fbe004f
:10099000829fbe00849fbe00869fbe000000fa00ba
:1009a0008600a9001110800000082000008060006f
:1009b0000000e0000800320002e2a9000e28ef006b
:1009c000a0408000200090008000eb00010878002b
:1009d0001428ef000e013700704080008000eb000b
:1009e000b200200003002000820f5000838f5800c7
:1009f000fd003e00006001000b0037003a003700a8
:100a0000760037009d003700f4003700c90037003a
:100a1000da003700f1003700dc003700f200370061
:100a20003500370051003700608020002000900022
:100a3000620060000000e000f4003a0060802000e6
:100a400010009000a04088006080200010009000fe
:100a50001040780010e8b70060802000100090007f
:100a600010009000904088006080200010009000ee
:100a7000e6004000608020001100980060802000a7
:100a80009000900060802000808f500003003a00aa
:100a9000608020000180200011009800608020000c
:100aa00020019000e1ff2f008100610021009800eb
:100ab000608020009000900060802000100078008e
:100ac000808f500004003a0060802000a000900059
:100ad0000110a000210098000402a80020002000be
:100ae00070408800ca0037000422a80020002000bf
:100af00070408800c60037002110800000042000ec
:100b0000008060000000e0000800320060802000eb
:100b1000604090008040e8006080200061409800c4
:100b200040002000bf060700b900370010418000d8
:100b30008000d100f00f20000080600000108800cd
:100b40001041800061006000004078000004e00077
:100b500003003200b000200070408800ac00370075
:100b60003000200070408800a9003700211080006c
:100b700000042000008060000000e0000800320057
:100b800060802000604090008040e800608020008d
:100b90006140980040002000a20607009c0037003a
:100ba0000422a800104180004800de00e60060003a
:100bb000000f2000010070001041880010418000eb
:100bc0000000a0001041880010c0b30024e8b70066
:100bd00020002000704088008d00370024c8bf002e
:100be000e14f50000a003200904080001000780071
:100bf0001041880090408000200090003041880023
:100c0000904080002040900028e8b70001003700a5
:100c10002468ef0011418000f00f2000808f500009
:100c200009003600104180004800de00e600600048
:100c3000000f20000100700000108800a0002000bc
:100c4000704088007200370010418000001088005a
:100c50001041800061006000004078000004e00066
:100c60000300320050002000704088006800370008
:100c7000300020007040880065003700211080009f
:100c800000042000008060000000e0000900320045
:100c900060802000604090008040e800608020007c
:100ca0006140980004c2a900500020005d060700c2
:100cb0005700370028c8bf008080fb008100e90092
:100cc000cf08de00814078000040e90028e8b70046
:100cd0000104e000100032009040800066004000f7
:100ce0009040880010c8bf000040e90010e8b7003d
:100cf00010c8bf000004e00003003a0020002000fc
:100d000048060700420037000422a8002000200007
:100d1000704088003e0037003041800090407800ed
:100d20008180fb00011088000000e800304188004d
:100d30003700370021108000000420000080600090
:100d40000000e00009003200608020006040900058
:100d50008040e80060802000614098004000200052
:100d60003006070004c2a900290037000462a80069
:100d7000800020007040880025003700800020009f
:100d8000704088000462a8002100370030418000d4
:100d90000110800081407800014878000000e800e0
:100da0003041880028c8bf000040e90028e8b700ab
:100db00028c8bf000004e0000400320004a2a9001b
:100dc00060002000704088000200370004a2a800e4
:100dd000030607000482a8000d0037002000200051
:100de000100607000a003700608020006040900075
:100df0008040e80060802000614098006000200092
:100e00000806070000000000010037000000000095
:100e10000080fa004f03be004f02be004f01be002b
:100e20004f00be003600f900004006003600f80012
:100e3000809fbe00829fbe00849fbe00869fbe0032
:100e40000000fa00b04480000000e800b0448800d0
:100e5000b144800010032000808f50000200360053
:100e6000ee0807009628ef0095c8bf000040e80094
:100e700095e8b70010c0b30094e8b7008460a900fb
:100e80000080fa004f03be004f02be004f01be00bb
:100e90004f00be003600f900004006000040da00b6
:100ea0000000fe0000000500889fbe008a9fbe0073
:100eb0008c1f7800690007007000330003866c0007
:100ec0006450e1002e0032006420e1003300320063
:100ed0006150e1002f0032006120e100310032005a
:100ee00085855500eb07b0000900200008042000ac
:100ef000050037000804440089844c000a003100d2
:100f00000603430087834b000001530081815b008f
:100f1000f8ff33000203be000800a00008044400ec
:100f200089844c00f6ff3900c639dd008301730067
:100f300001003200130020008904d1000884d3008e
:100f40000998a300050032000800a7000300a000d4
:100f50008904d1000884d3008b05e8008904d100fe
:100f60000884d3000001eb000281d20015000700c5
:100f700001f0a1000cf0a70001f0a000480037002c
:100f80006420e1004a0032000801be000200be00f9
:100f9000f7ff37006120e100450032006000b80033
:100fa000f3ff37000000200001f82700f0ff3700b2
:100fb00014002000750037004f89de0082017800a0
:100fc0008d00370081002000618055000b003d003e
:100fd0000b00200061fe2f000100e1001d00340025
:100fe00082817100610164008904d1000884d3000a
:100ff0000000e800faff3a00710020006100640080
:101000000300700002006000090032006104440027
:10101000e0844c000988a500050032008b05e8003b
:101020006808e10002003a008904d1000884d30076
:10103000f20f20000258e10005003d00c75ddd0011
:10104000f907b200898075000800780000000600ea
:101050000bf827008b007800000005000004be009c
:10106000a40007000003be000405be000200be008d
:10107000a0000700844f7500000006000200be00bb
:101080006450e100050036006420e10002003600f3
:101090000968a30001003a000800be000160a0003a
:1010a0004f0678004f05be004f04be00000006004a
:1010b000f0ff2f00f1ff2700f9ff3700889fbe00e7
:1010c0008a9fbe008c1f7800e4ff0700ebff33000f
:1010d00003866c006450e100240032006420e100cb
:1010e000270032006150e100220032006120e1005f
:1010f000210032008b854200eb07b1000134b800bb
:10110000003ab8000804420089844a00013ab80055
:101110000030b8008880400009014a000400330014
:101120000000400081804800020149008b05e90071
:10113000c909dd00830170000100320013002000a6
:10114000c814de004814dd004709de001200b200ba
:10115000c808de00088470009aff070001f0a100b3
:101160000cf0a70001f0a000cdff37006120e100e6
:10117000cfff32000801be000200be00f7ff3700bb
:101180006150e100fcff3a00c9ff3700889fbe00b4
:101190008a9fbe00841f7800b0ff07004f007800d0
:1011a00011003300f0ff2f00838f6c0006003b001e
:1011b000040565000a00a7000800370009f0a60032
:1011c0001000200008003700820f5400838f5c005d
:1011d000030039001000200001003e000000200044
:1011e00009f0a7000000ea004f05be004f04be0052
:1011f0000000e00000000600881f7800030478006b
:101200000300e00007003d0060001000e0801800cf
:1012100060011900e081190002003b0001f02d007f
:10122000030037000400070008f0a70001f0a00049
:101230004f04780000000600889fbe008a9fbe0011
:1012400000827000040271000482710026003200e6
:101250000004be000200be006011b8006b0920004f
:10126000950220000182cf000a0039000541b1003b
:101270000082cf00070039000541b1000982cf008c
:10128000040039000541b1000882cf000100390097
:101290000541b10005425200120032000a003b0035
:1012a00082817100610164008100d1000080d3005f
:1012b0008984d3000884d3008b05e8000442e80049
:1012c000f7ff3a00070037000804440089844c0007
:1012d00000004800818048008b05e9000442e900d5
:1012e000f9ff3a0037ff07004f05be004f04be006c
:1012f00000000600c70ade00f107b200f50fb200d9
:1013000008003200e1cf4200020032000170a0006c
:1013100024000500810f7000010032000408050060
:1013200044000500810f700002003a00140005001f
:101330008502e9000000400081c04800fcff3b003e
:081340000170a000240005006b
:020000040000fa
:101348000a0000001e0000003200000046000000f5
:1013580050000000550000005a0000005f00000027
:1013680000000000c0000000c000000000000000f5
:10137800000000000000000000000000c0000000a5
:10138800000000000000000000ff00003f00000017
:020000040000fa
:101398001800fa00000220003044880040062000af
:1013a800404488002003200050448800419b2800c6
:1013b80016000900315f78007e01b100c388200063
:1013c8006288200071c1b3000e007800140607007f
:1013d8000004e0003200320060448000e40f500056
:1013e8002f003a00a0c0b300004f780000c2b3003d
:1013f80010479800c38820006288200021c0b300ed
:101408000e007800060607000004e0002400320001
:1014180060448000e40f500021003a0030c1b3005e
:10142800004f78000040eb00104798000040220071
:10143800410f200039090700c38820006288200076
:1014480021c0b3000e007800f50507000004e00095
:101458001300320060448000e40f500010003a008e
:1014680020c1b300004f78000040eb0010479800ff
:10147800c38820006288200021c0b3000e007800d5
:10148800e70507000004e000050032006044800022
:10149800e40f500002003a0010c0b300010037000a
:1014a8000040eb000080fa00000006000000fa008f
:1014b80010c0b300a2e8b7000080fa0000000600e0
:1014c8000000fa000040eb00c10007000040eb00fc
:1014d800d4000700a268ef000080fa0000000600b0
:1014e8000000fa00a2c8bf000080fa000000060051
:1014f8000000fa00c08820000080fa000000060002
:101508000e00fa00889fbe00600798000040eb00bc
:10151800004f780010c0b3001047980000b52000b5
:1015280020079800ee00900000b52f0000804000d2
:10153800300798003e009000cf80de009cfe070038
:101548000004be002e009000cf80de0098fe070049
:101558000001be000800be0051fe07000200200086
:10156800832c2400d3fe07004007980051079800f9
:101578000040eb0020479800190037002e409000eb
:101588000080fb0080004000409a28000080400056
:1015980010007800cf80de0085fe070018c0b30079
:1015a8004e019000de0190007ffe07000000e00081
:1015b800010034000044eb000804e0000c00320095
:1015c8001e4090001e4f70001e40900000404000da
:1015d800104798002e4090000040e80020479800ef
:1015e8002e409000e74f5000e4ff3600010037001e
:1015f800000000001e407800750007000004e000ad
:101608000200320010c0b300010037000040eb00b8
:101618004f04be000080fa00000006000400fa0033
:101628002047980070c0b300004f78000e00e80013
:10163800a30007000004a2000004e000020032003a
:101648000040eb00140037002e4090006740600017
:10165800204798001e40780080c0ea001e40900095
:1016680000c06000104798009e4090002e409000f7
:1016780000c07000104798001e40900069000700e5
:101688000004a2000004e000020032000040eb0069
:101698000100370010c0b3000080fa000000060007
:1016a8000400fa002047980080c3b300004f780078
:1016b8000e00e800820007000004a2000004e00019
:1016c800020032000040eb00180037002e40900066
:1016d8006740600020479800ae409000300020002e
:1016e8000008dd00204798001e40780080c0ea000e
:1016f8001e40900000c06000104798009e40900077
:101708002e40900000c07000104798001e409000c6
:10171800440007000004a2000004e00002003200b8
:101728000040eb000100370010c0b3000080fa0051
:10173800000006000800fa0020079800310798000a
:1017480000c8b300004f780000c4b30010479800e9
:101758002e0090008040eb00014878003e00900089
:101768008040eb00014878000e80e8005400070034
:101778000004a2000004e000020032000040eb0078
:10178800110037002e4090001e4060009e4f500010
:1017980003003a002e00900011c0b3000148780001
:1017a800ae4090001e40900080c060001e40900037
:1017b80080cf500003003a003e00900011c0b300f3
:1017c8000148780010c0b3000080fa00000006004d
:1017d8000400fa002047980020c1b300004f7800a9
:1017e800ae40900011479800c3882000628820000e
:1017f80021c0b3000e007800090507000004e000ce
:1018080003003a0060448000e40f500002003a00f0
:1018180010c0b300010037000040eb000080fa0060
:10182800000006000400fa002047980030c1b30009
:10183800004f7800ae40900011479800c388200000
:101848006288200021c0b3000e007800f40407006d
:101858000004e00003003a0060448000e40f5000f8
:1018680002003a0010c0b300010037000040eb004e
:101878000080fa00000006000200fa00000f78005d
:10188800c48820006388200022c1b30011c0b300bf
:101898001e007800340507000004e00003003a0049
:1018a80060448000e40f500002003a0010c0b3000a
:1018b800010037000040eb000080fa00000006003d
:1018c8000200fa00000f7800c48820006388200016
:1018d80032c1b30011c0b3001e0078002205070012
:1018e8000004e00003003a0060448000e40f500068
:1018f80002003a0010c0b300010037000040eb00be
:101908000080fa00000006000600fa00cb07070076
:10191800010407000004a2000004e00004003200f3
:10192800bb0407006f0507000080eb0017013700b4
:1019380097fe07000004a2000004e0000400320043
:10194800ebfe0700670507000080eb000f0137007a
:101958009f68ef00dc060700cdc2a8000020210028
:10196800a1072000ed07070010c0b3009ee8b700ec
:1019780020c0b30029ff07000004a2000004e00013
:1019880004003200a2040700560507000080eb009f
:10199800fe00370010c0b30041ff07000004a2009a
:1019a8000004e00004003200990407004d05070018
:1019b8000080eb00f5003700200707000040eb002f
:1019c800204798000040eb0030479800010037009e
:1019d800000000002f070700e40f5000fcff340050
:1019e800e50047006400470052ff07000004a2001a
:1019f8000004e00004003200bdfe070039050700be
:101a08000080eb00e10037004e4090000004e00049
:101a18004a00320010c0b300104798002e409000d2
:101a28000040e80020479800ae409000b0c3b300e3
:101a380080cf50004800360070c0b300f7fe0700a2
:101a48000004a2000004e000040032007004070053
:101a5800240507000080eb00cc00370070c0b300fd
:101a68000fff07000004a2000004e0000400320099
:101a7800670407001b0507000080eb00c300370060
:101a8800cdc2a80000202100a1072000a30707005d
:101a980010c0b3009fe8b7009f0307000004a2002e
:101aa8000004e00004003200590407000d05070097
:101ab8000080eb00b500370000402200410f2000f5
:101ac800960707009f68ef007f06070000202100a7
:101ad800a10720009107070010c0b3009ee8b700d7
:101ae80020c0b300cdfe07000004a2000004e000ff
:101af8000400320046040700fa0407000080eb00e7
:101b0800a200370010c0b300e5fe07000004a200e1
:101b18000004e000040032003d040700f10407005f
:101b28000080eb00990037000040eb001047980058
:101b38000040eb0020479800070037001e40900047
:101b48000004e000040032000040eb001047980059
:101b58000040eb00204798005e4090000004e00041
:101b68004100320010c0b300004f78003e409000a2
:101b78000040e80030479800be409000b0c3b30072
:101b880080cf50007f0036009ec8bf000004a2002e
:101b98000004e0001a0032009f68ef004a060700c0
:101ba800cdc2a80000202100a10720005b07070084
:101bb80010c0b3009ee8b70020c0b30097fe07002e
:101bc8000004a2000004e000040032001004070032
:101bd800c40407000080eb006c00370010c0b3009d
:101be800affe07000004a2000004e0001900320064
:101bf80007040700bb0407000080eb006300370000
:101c08009e68ef00cdc2a9003306070030c0b300bc
:101c180082fe07000004a2000004e0000400320075
:101c2800fb030700af0407000080eb0057003700f4
:101c380040c0b3009afe07000004a2000004e000c0
:101c480004003200f2030700a60407000080eb003e
:101c58004e0037000040eb00004f78000040eb00da
:101c680030479800470037001e4078000004e00025
:101c7800440032009ec8bf000004e000200032008b
:101c88009fc8bf000004a2000004e0000d0032005d
:101c980010c0b3009fe8b700cdc2a9000e06070028
:101ca80040c0b3007efe07000004a2000004e0006c
:101cb80030003200d60307008a0407000080eb00da
:101cc8003200370000060700cdc2a800002021001e
:101cd800a1072000110707009f68ef0010c0b3009c
:101ce8006ffe07000004a2000004e000210032009b
:101cf800c70307007b0407000080eb0023003700c0
:101d080010c0b30066fe07000004a2000004e00053
:101d180004003200be030700720407000080eb00d5
:101d28001a0037003005070012060700f4fd070007
:101d38000004a2000004e00002003200ecfd0700ed
:101d48006804070000402d0001032000f306070087
:101d580040c0b30052fe07000004a2000004e000e7
:101d680004003200aa0307005e0407000080eb00ad
:101d7800060037000040eb00004f78000040eb0001
:101d8800304798004806070012ff37000080fa0025
:101d9800000006000000fa00800020008011880082
:101da8003222ef00f00c2000c011880097c0a80074
:101db80031e2a8003342a800e086200050438800a2
:101dc800e086200040438800608720003043880078
:101dd80060872000204388006c28a8006d28a80090
:101de8006d08a9006c08a90031e2a9000080fa007a
:101df800000006000200fa000040eb00004f7800e7
:101e080030438000104f7800304380000000e80025
:101e18003043880031438000e0872000808f5000e5
:101e280002003a0060872000304388003143800078
:101e380020438000808f500001003a006c28a800e1
:101e48006c08a9001e4078000080fa000000060017
:101e58000600fa00881f78001007980021079800ec
:101e68000000eb00000f7800090037006043800095
:101e7800620060000000e0000a003a001e009000c6
:101e88001e044000dbff0700004c78001e0fe8002e
:101e98002e0090009e007800808f5000f3ff3900dc
:101ea80001003700000000001e0078004f04780091
:101eb8000080fa00000006000200fa00004f7800d7
:101ec80097e0a900404380001e4878004043800006
:101ed8000000e800404388004143800060872000fc
:101ee800808f500002003a00e086200040438800be
:101ef8006d28a9005143800040438000808f500026
:101f080001003a006d08a80097e0a8000080fa00d8
:101f1800000006000600fa00100798002107980044
:101f28000000eb00000f78000a00370061438000d2
:101f380000102000008060000000e0000a003a0065
:101f48001e0090001e004000104078001e0fe800a0
:101f5800d9ff07002e0090009e007800808f500067
:101f6800f2ff390001003700000000001e00780071
:101f78000080fa00000006000200fa000000eb00f2
:101f8800000f78006143800000102000008060008e
:101f98000000e000010032001e30a0006143800014
:101fa80000202000008060000000e00001003200f6
:101fb8001e40a00060438000610060000000e00057
:101fc800010032001e00a000604380006200600033
:101fd8000000e000020032001e20a00001003700cf
:101fe8001e10a0001e0078000080fa000000060005
:101ff8000200fa00000f7800304380009e00400085
:10200800e0872000808f50000900360030438000b0
:102018009e004000e08720000000ea008080400029
:1020280060872000008040001040780003003700df
:10203800304380001e004000104078000080fa0005
:10204800000006000000fa006043800061006000a4
:102058000000e0000f003a00314380002043800078
:10206800808f5000050036003043800080007800e3
:102078002043800000805000070037003043800074
:1020880080007800204380000080500068004000f5
:10209800010037000000eb000080fa000000060095
:1020a8000000fa00614380000010200000806000fa
:1020b8000000e0000f003a005143800040438000d8
:1020c800808f500005003600504380008000780063
:1020d80040438000008050000700370050438000d4
:1020e8008000780040438000008050006800400075
:1020f800010037000000eb000080fa000000060035
:102108000000fa00604380000000d10061406000d8
:102118000080fb0000f0a7000000ea000000ea00d1
:102128004f00de00004078000080fa000000060042
:102138000000fa00604380004800de006140600053
:102148000080fb0000f0a7000000ea000000ea00a1
:102158004f00de00004078000080fa000000060012
:102168000000fa00901180000080fa0000000600cc
:102178000000fa0080002000001188002222ef00f1
:10218800f00c2000401188009560a80021e2a8000a
:102198002342a80040852000804288004085200016
:1021a80070428800c085200060428800c0852000f9
:1021b800504288005228a8005328a8005308a900b4
:1021c8005208a9000080fa00000006000200fa0088
:1021d8000040eb00004f780060428000104f78000c
:1021e800604280000000e800604288006142800090
:1021f80040862000808f500002003a00c0852000f1
:10220800604288006142800050428000808f500008
:1022180001003a005228a8005208a9001e40780080
:102228000080fa00000006000600fa00881f780007
:1022380010079800210798000000eb00000f7800b5
:102248000900370090428000620060000000e00052
:102258000a003a001e0090001e044000dbff070041
:10226800004c78001e0fe8002e0090009e007800b9
:10227800808f5000f3ff3900010037000000000094
:102288001e0078004f0478000080fa000000060065
:102298000200fa00004f78009580a9007042800083
:1022a8001e487800704280000000e80070428800f4
:1022b80071428000c0852000808f500002003a00e3
:1022c80040852000704288005328a9008142800080
:1022d80070428000808f500001003a005308a80027
:1022e8009580a8000080fa00000006000600fa00a9
:1022f80010079800210798000000eb00000f7800f5
:102308000a00370091428000001020000080600021
:102318000000e0000a003a001e0090001e00400085
:10232800104078001e0fe800d9ff07002e0090002b
:102338009e007800808f5000f2ff390001003700be
:10234800000000001e0078000080fa00000006006f
:102358000200fa000000eb00000f780091428000b4
:1023680000102000008060000000e0000100320042
:102378001e30a000914280000020200000806000f4
:102388000000e000010032001e40a00090428000e2
:10239800610060000000e000010032001e00a000a3
:1023a80090428000620060000000e00002003200fd
:1023b8001e20a000010037001e10a0001e0078009b
:1023c8000080fa00000006000200fa00000f780002
:1023d800604280009e00400040862000808f5000b0
:1023e80009003600604280009e00400040862000c0
:1023f8000000ea0080804000c08520000080400086
:102408001040780003003700604280001e00400042
:10241800104078000080fa00000006000000fa0072
:1024280090428000610060000000e0000f003a0068
:102438006142800050428000808f500005003600c5
:102448006042800080007800504280000080500088
:10245800070037006042800080007800504280000a
:102468000080500068004000010037000000eb00c9
:102478000080fa00000006000000fa009142800087
:1024880000102000008060000000e0000f003a000b
:102498008142800070428000808f50000500360025
:1024a80080428000800078007042800000805000e8
:1024b800070037008042800080007800704280006a
:1024c8000080500068004000010037000000eb0069
:1024d8000080fa00000006000000fa009042800028
:1024e8000000d100614060000080fb0000f0a70000
:1024f8000000ea000000ea004f00de00004078001b
:102508000080fa00000006000000fa0090428000f7
:102518004800de00614060000080fb0000f0a7007a
:102528000000ea000000ea004f00de0000407800ea
:102538000080fa00000006000000fa001011800078
:102548000080fa00000006000000fa006080200009
:102558000180200011009800608020000180200088
:102568000108780060802000a00090000110a00001
:10257800210098006080200020019000e1ff2f00da
:102588008100610021009800608020008040eb00fd
:10259800614098000822ef00800220001010880097
:1025a8000622ef00f0012000501088008600a900e4
:1025b8009600a8000080fa00000006000200fa0059
:1025c80060802000e0409000014f78001e407800b5
:1025d8000080fa00000006000000fa009040800029
:1025e800660040009040880010c8bf000040e90025
:1025f80010e8b70010c8bf000004e00003003a006c
:1026080040002000704088000200370010002000c1
:10261800704088000080fa00000006000200fa00fe
:10262800000f78000442a800a0408000200090001d
:102638000000e00003003200a0408000200090006d
:102648001e0878000e28ef000080fa00000006003f
:102658000800fa00000f7800214798002207980028
:10266800330798006080200020009000610060001f
:102678000000e0000a003a00ae0190002e419000f0
:102688009e007800c0812000780007003e0190007d
:10269800c181200010c0b3001f00070003003700ed
:1026a8003e0090008000eb00010878000080fa00ee
:1026b800000006000800fa00000f78002147980083
:1026c80022079800330798006080200020009000bf
:1026d800610060000000e0000a003a00ae019000ce
:1026e8002e4190009e00780060812000470007007e
:1026f8003e0190006181200010c0b3000600070071
:10270800030037003e0090008000eb0001087800cd
:102718000080fa00000006000600fa00004f78006a
:102728001107980022079800608020002000900080
:10273800610060000000e0002f003a002e009000c9
:102748001100200001087800608020001000780047
:102758009e00900011009800608020001000780012
:102768001e4878006080200010007800ae009000bd
:10277800210098006080200010007800e6004000ea
:1027880060802000010878006080200090007800b8
:1027980060802000808f500003003a006080200095
:1027a800018020000108780060802000200190004e
:1027b800d1ff2f0081006100210098006080200077
:1027c800900090006080200010007800808f5000fa
:1027d80004003a0060802000a00090000100a000e2
:1027e80021009800704080000000e00005003a00d9
:1027f8008600a800030037002e0090008000eb0040
:10280800010878000080fa00000006000800fa00bd
:10281800000f780011079800424798003307980086
:102828003e00900000004000800078001e00780004
:10283800010878001e0078001000780080007800f9
:102848000100a0001e007800010878001e00780032
:10285800ce409000214098001e0078009e00900015
:10286800210098000080fa00000006000800fa0025
:10287800000f780011079800424798003307980026
:102888003e00900000004000800078001e007800a4
:10289800010878001e007800ce4090002140980082
:1028a8001e0078009e009000210098000080fa0029
:1028b800000006000000fa00608020002000900060
:1028c8000000d100614060000080fb0000f0a7001c
:1028d8000000ea000000ea004f00de000040780037
:1028e8000080fa00000006000000fa006080200066
:1028f80020009000614060000080fb0000f0a7000d
:102908000000ea000000ea004f00de000040780006
:102918000080fa00000006000600fa00c00220004d
:10292800f04388004006200000448800200320006f
:10293800104488000040eb00204798000040eb005e
:102948003047980000c8b300004f78006400470083
:1029580041882000660007000004a2000004e0008f
:10296800020032000040eb005f0037002e009000ac
:102978000000d10020079800d30207000040eb00b8
:10298800104798004d0037003e4090001e407000f0
:10299800304798000e80e80043882000e287200036
:1029a80021c0b3009e0007000004a2000004e0005c
:1029b800020032000040eb004b003700204480004a
:1029c800e40f50003b003a00cd42a800c6020700c1
:1029d80000000000eb0207000004a2000004e00071
:1029e800fcff3a00cd42a900e2020700014b20009b
:1029f800810f50001e003600de02070001b52f00cf
:102a0800810040002e009000808f50002f0036007b
:102a18003e409000804078001e40780000c0ea00e8
:102a280000c06000304798001e409000e74f5000fb
:102a380019003a000e80e80043882000e287200051
:102a480021c0b300760007000004a2000004e000e3
:102a5800020032000040eb002300370020448000d1
:102a6800e40f50000c0032000040eb001e0037005d
:102a7800c0020700f14a2000810f500015003e00f7
:102a8800bc020700014b2000808050002e009000ff
:102a9800808f5000110036001e80fb000000d1001e
:102aa800004f78001e4090000040e8001047980052
:102ab800020037000040eb000b0037001e4090007a
:102ac800e74f5000b0ff3600050037000000000057
:102ad800030037000000000001003700000000007c
:102ae8007d02070010c0b3000080fa000000060055
:102af8000800fa0020079800310798000040eb0012
:102b08002047980000c8b300304798000e80e800be
:102b1800be019000e287200021c0b30040000700fa
:102b28000004a2000004e000020032000040eb00b4
:102b3800350037003e00900010007800e40f500088
:102b480018003a0060020700cd42a800660207009c
:102b5800000000008b0207000004a2000004e0004f
:102b6800fcff3a00cd42a90082020700000f78005e
:102b7800590207003e4090000040e80030479800a6
:102b88000e80e800be019000e287200021c0b3005b
:102b9800230007000004a2000004e00003003a003c
:102ba800040037000040eb00170037000040eb003e
:102bb800150037003e00900010007800e40f500028
:102bc80010003a0040020700cd42a8004602070064
:102bd800000000006b0207000004a2000004e000ef
:102be800fcff3a00cd42a900620207009e00500097
:102bf8002e009000010878003702070010c0b300cb
:102c0800010037000040eb000080fa0000000600d9
:102c18000000fa00408820000080fa00000006004a
:102c28000e00fa0030079800014f980052079800ec
:102c38006307980010002000200798005e009000ad
:102c480010007800e4004700810178000001780056
:102c58008e4890003e0090007dfe07000000eb00cb
:102c6800100798000000eb00000f78002d003700d7
:102c780000e8230001002000280307005e00900000
:102c8800100090009e0f500005003a006e00900062
:102c98008000eb000108780010c0b3003000370056
:102ca8001e0fe80001003700000000002e00900011
:102cb800e10f5000eeff32002e009000e20f5000ae
:102cc80005003a006e0090004100200001087800dd
:102cd80010c0b300220037005e009000a0009000f2
:102ce8001e009000808f50000b003a002e009000cc
:102cf800e40f5000030032002e009000e50f500052
:102d080008003a006e0090002100200001087800b9
:102d180010c0b300120037001e0090000000e80049
:102d2800100798002e0090000000e000deff3a0037
:102d38002e0090000000e00005003a006e009000b0
:102d4800310020000108780010c0b30004003700eb
:102d58006e00900031002000010878000040eb0070
:102d68000080fa00000006001a00fa00100f980010
:102d78004157980052579800330f9800440f980015
:102d880010002000200798003e08900010017800ed
:102d9800f5004700660047008201780012c0b300c2
:102da800b2fe07003e0890009000780066004700d9
:102db80066004000810178004e5190009e08900006
:102dc80092fe07000000eb00100798000000eb00df
:102dd800000f780032003700e40047006600470023
:102de800010178008000780020c0b3004afe070087
:102df8000d00370000e8230001002000c70207008b
:102e08003e089000100090009e0f500005003a0008
:102e18004e0890008000eb000108780010c0b30055
:102e28002e0037001e0fe8002e009000e10f500022
:102e3800f0ff32002e009000e20f500005003a002b
:102e48004e089000410020000108780010c0b3002f
:102e5800220037003e089000a00090001e0090005d
:102e6800808f50000b003a002e009000e40f5000b5
:102e7800030032002e009000e50f500008003a00d1
:102e88004e089000210020000108780010c0b3000f
:102e9800120037001e0090000000e800100798009c
:102ea8002e0090000000e000cbff3a002e009000ba
:102eb8000000e00005003a004e08900031002000b4
:102ec8000108780010c0b300040037004e089000d5
:102ed80031002000010878000040eb000080fa0073
:102ee800000006000200fa00000f7800a0cfb3002f
:102ef800e7fc07000080fa00000006000400fa0062
:102f08000001780010c0b300004f78000040eb00cb
:102f1800104798000040eb00204798000e0078000a
:102f280082007800904878008100e8000000e800fe
:102f3800904878008100e8000000e8009048780098
:102f48008100e8000000e800020078000080fa0034
:102f5800000006000400fa00000178000040eb00c1
:102f6800004f780010c0b300104798000040eb00f5
:102f7800204798000e00780082007800904878007a
:102f88008100e8000000e800904878008100e8002f
:102f98000000e800904878008100e8000000e800a0
:102fa800020078000080fa00000006000400fa0021
:102fb800000178000040eb00004f78000040eb0073
:102fc8001047980010c0b300204798000e00780002
:102fd80082007800904878008100e8000000e8004e
:102fe800904878008100e8000000e80090487800e8
:102ff8008100e8000000e800020078000080fa0084
:10300800000006000400fa000001780010c0b300b8
:10301800004f780010c0b300104798000040eb0044
:10302800204798000e0078008200780090487800c9
:103038008100e8000000e800904878008100e8007e
:103048000000e800904878008100e8000000e800ef
:10305800020078000080fa00000006000400fa0070
:103068000001780010c0b300004f78000040eb006a
:103078001047980010c0b300204798000e00780051
:1030880082007800904878008100e8000000e8009d
:10309800904878008100e8000000e8009048780037
:1030a8008100e8000000e800020078000080fa00d3
:1030b800000006000400fa00000178000040eb0060
:1030c800004f780010c0b3001047980010c0b3003c
:1030d800204798000e007800820078009048780019
:1030e8008100e8000000e800904878008100e800ce
:1030f8000000e800904878008100e8000000e8003f
:10310800020078000080fa00000006000400fa00bf
:103118000001780010c0b300004f780010c0b30061
:103128001047980010c0b300204798000e007800a0
:1031380082007800904878008100e8000000e800ec
:10314800904878008100e8000000e8009048780086
:103158008100e8000000e800020078000080fa0022
:10316800000006000400fa00000178000040eb00af
:10317800004f78000040eb00104798000040eb003b
:10318800204798000e007800820078009048780068
:103198008100e8000000e800904878008100e8001d
:1031a8000000e800904878008100e8000000e8008e
:1031b800020078000080fa00000006000000fa0013
:1031c800cd42a800c800070000000000ed0007007d
:1031d8000004a2000004e000fcff3a00cd42a90070
:1031e8000080fa00000006000000fa00b6000700a0
:1031f800cdc2a80000202100a1072000c7010700b8
:10320800eeff0700cdc2a900b30007000080fa0056
:10321800000006000000fa009ec8bf008080fb0086
:103228009fc8bf000004a2000080fb00008060006f
:103238000000e0000b003200e0ff0700a8f80700dc
:103248000004e00007003200ca000700acf80700dd
:103258000004a2000004e00002003200a4f8070005
:1032680020ff07000080fa00000006000400fa00b2
:103278000040eb002047980010c0b300304798008a
:103288000000eb00000f7800120037002e4090007d
:103298004ff907000004a2000004e0000200320019
:1032a8001e0fe9000a003700ae4090003e40900033
:1032b80000c07000204798003e4090000040400049
:1032c8003047980000902000d103200093010700a8
:1032d8001e0fe8001e007800e80f5000ebff3400d6
:1032e80010c0b300cdf8070000902000d1032000e3
:1032f8008a01070020c0b300c8f80700009020002a
:10330800d10320008501070040c0b300c3f80700bf
:1033180000902000d10320008001070070c0b30096
:10332800bef8070010c0b300ddf8070000902000c9
:10333800d10320007901070020c0b300d8f80700a6
:1033480000902000d10320007401070040c0b300a2
:10335800d3f8070000902000d10320006f01070078
:1033680070c0b300cef8070000902000d103200001
:103378006a0107000040eb00c9f807000040eb00b5
:10338800a6f807000080fa00000006000200fa0014
:103398000e00e800800078000e007800e5f80700cd
:1033a8001e4078000004e0000e00320098c8bf00fc
:1033b8000040e80098e8b700818920009140780033
:1033c80030c6b30080cf50000300360020c0b300e1
:1033d80092f807000600370010c0b3008ff8070006
:1033e800030037009868ef000040eb008bf80700f7
:1033f8001e4090000004e0001400320099c8bf008d
:103408000040e80099e8b70099c8bf00ea4f5000ab
:103418000b003a00a189200091407800a0c8bf00a5
:1034280000c070009ae8b700a0c8bf000040400084
:10343800a0e8b7009ac8bf00e5f807009968ef0050
:1034480010c0b30096f80700080037009a68ef002c
:1034580010c0b300a0e8b7009ac8bf00dcf80700a6
:103468000040eb008ef807009968ef000080fa0032
:10347800000006000000fa0040472000001a8800fb
:1034880040022c00101a880090402000201a880062
:103498004823ef004e23ef005023ef005423ef00a2
:1034a8005623ef005823ef006023ef006223ef005c
:1034b800101a80004200de007f4060008ee8b700ee
:1034c8000080fa00000006000000fa0041e3a800ae
:1034d8000080fa00000006000000fa0041e3a9009d
:1034e8000080fa00000006000000fa009268ef0071
:1034f80085a0a90095a0a8000080fa000000060099
:103508000000fa0095a0a9000080fa00000006005b
:103518000600fa00200798000030200010079800e5
:103528000000eb00000f78000b0037001e00780049
:1035380000004000ae009000008040009e00900017
:1035480091007800010878001e0090000080e800d3
:10355800100798001e0fe8008ec8bf000080fb000f
:103568009e0f5000f1ff3d001e0078000080fa0019
:10357800000006000000fa00804480000080fa0085
:10358800000006000000fa0092c8bf000080fa00a0
:10359800000006000200fa00000f78009e00780084
:1035a800411a88000080fa00000006000000fa00b6
:1035b8000021ef00102720001008880000032000d9
:1035c800200888008460a9009460a8009468ef002f
:1035d8000080fa00000006000200fa00000f7800e0
:1035e8009e007800110888009468ef000080fa00b7
:1035f800000006000000fa00100880000080fa00b1
:10360800000006000200fa00000f78009e00780013
:10361800010888009468ef000080fa0000000600a6
:103628000000fa00000880000080fa000000060090
:103638000000fa000080fa00000006000000fa000e
:103648009468ef009460a80005e1a8000080fa00e3
:10365800000006000000fa0005e1a9009460a90036
:103668000080fa00000006000200fa0041892000ec
:1036780091407800014f78001e4078000004e00077
:10368800010032009468ef001e4078000080fa00c4
:10369800000006000000fa0095c8bf000080fb008b
:1036a8000080fa00000006000000fa009568ef00ac
:1036b8000080fa00000006000000fa0021068000e1
:1036c800f08f2f00008060000080a0002006880096
:1036d80091058000f0ff28000080600000e0a00055
:1036e8009005880091058000f08f2f008080600091
:1036f80000502000010070009005880061058000de
:103708000007200001007000600588006105800046
:1037180080ff2f00008060006000b3006005880013
:1037280021058000f0ff280080806000000026004e
:10373800010070002005880021068000f0f82f00a5
:10374800008060000040a00020068800510580002d
:1037580080ff2f00008060005000b30050058800f3
:1037680041058000f0ff28008080600000002600ee
:103778000100700040058800510580000007200006
:1037880001007000500588000080fa000000060063
:020000040000fa
:103798009c0800000200000002000000ffff00007b
:1037a8002a08000020000000000000008e08000029
:1037b80006000000000000004a0800001a0000008f
:1037c80000000000640800001a000000000000006b
:1037d800000800002a000000000000009408000013
:1037e80004000000000000009e0800000200000025
:1037f800000000009808000004000000000000001d
:10380800a008000002000000020000000100000003
:103818007e08000008000000000000008608000084
:103828000800000000000000a208000002000000dc
:0c38380002000000010000000000000081
:020000040000fa
:103844000000fa0022000700080007009bff0700a1
:1038540051f907003dfb070046fa070006ff070081
:1038640053ff07000080fa00000006000000fa0081
:103874004427ef004827ef004e27ef0012002000f6
:1038840080072000a10920003374200080497800bb
:1038940081497800824978001200200060042000e9
:1038a4007105200023742000804978008149780044
:1038b4008249780000000000103a80006100600036
:1038c4000000e000fcff3a000080fa00000006005f
:1038d4000000fa00c422ef001008200060168800df
:1038e400f00b200000168800603623004016880084
:1038f4005620ef005820ef006e20ef007020ef00fc
:10390400c622ef00ce22ef00f0012000002788003d
:1039140000002300102788000080fa000000060041
:020000040000fa
:10392400f03fb1000180b10006003500ee0309004c
:1039340000000000403fb1000180b100fbff3d00ea
:103944001000b000203fb0000200350000800900e4
:08395400000000000000060065
:020000040000fa
:10395c00000f78009e007800e1448800ffff3700dc
:10396c000000fa00a082200080077800208420004c
:0c397c00000188000080fa000000060036
:020000040000fa
:0200000401f009
:04000000ffff0000fe
:020000040000fa
:0200000401f009
:04000800ffff0000f6
:020000040000fa
:0200000401f009
:04000c00f8ff0000f9
:020000040000fa
:0200000401f009
:040010007fff00006e
:020000040000fa
:0200000401f009
:040014005fff00008a
:020000040000fa
:0200000401f009
:04001800ffff0000e6
:020000040000fa
:0200000401f009
:04001c00fdff0000e4
:00000001FF
